:0400000033EF17F0D3
:10080000000000803FCDCCCC3D0AD7233C6F128343
:100810003A17B7D138ACC52737BD37863595BFD61F
:100820003377CC2B325F708930FFE6DB2E08E53C56
:100830001E6042A20D0000803F000020410000C861
:100840004200007A4400401C460050C34700247414
:10085000498096184B20BCBE4C286B6E4EF9021591
:1008600050EC78AD60CAF24971010000000A000046
:100870000064000000E803000010270000A08601CB
:100880000040420F008096980000E1F50500CA9AEA
:100890003B4369636C6F2072696361726963612EA7
:1008A0002E00436172696361207465726D696E61C7
:1008B00074610020493A252E3366006369616F6ECA
:1008C0006500563A252E33660000550E0001646F10
:1008D000000E0001656FEDD3250E00017819D8B424
:1008E00007D051C0D9FF52C0DAFF78C0DFFFDFD395
:1008F000000E0001676F000E666F53C0F6FF54C014
:10090000F7FF0800F5502E0AD8A432D00001678DF9
:10091000534A542A000E0001736F000E726F1DD0EF
:1009200072C001F073C002F0000E046E0A0E036E76
:1009300029EC18F053C0F6FF54C0F7FF0800F5503B
:100940000126000E0222D00E01240001726FFF0E5C
:1009500002200001736F534A542A53C0F6FF54C05B
:10096000F7FF0800F5504EEC18F0D8A00CD0D8D7FF
:10097000000E0001736F000E726F0001678903D0D3
:100980000001678512D053C0F6FF54C0F7FF534AE9
:10099000542A0800F5CF78F000017851000AD8B445
:1009A00095D3660AD8B4ECD784D3070E0001671537
:1009B000D8B430D3000167A905D0000E0001736FD1
:1009C000060E726F64C0D9FF65C0DAFFDECF74F027
:1009D000DECF75F0DECF76F0DECF77F0040E0001CB
:1009E0006427000E6523000177AF15D074C001F0B5
:1009F00075C002F076C003F077C004F0D6EC17F0B3
:100A000001C074F002C075F003C076F004C077F046
:100A1000030E00016613000E00016D6F000E6C6F77
:100A20000001745100017511000176110001771168
:100A3000D8B488D0000176357735820F00016C6F0D
:100A400000016D6BFF0E6D2300016C07D8A06D07D0
:100A50006CC001F06DC002F0000E046E030E036E58
:100A600029EC18F001C06CF002C06DF06CC007F00A
:100A70006DC008F0000E0A6E0A0E096EDEEC15F06D
:100A800007C06CF008C06DF000016DAF04D000012C
:100A90006C07D8A06D0700016C5100086DEC08F0E0
:100AA00028C06EF029C06FF02AC070F02BC071F022
:100AB0006EC00FF06FC010F070C011F071C012F076
:100AC00074C013F075C014F076C015F077C016F03E
:100AD00079EC0AF00FC06EF010C06FF011C070F02A
:100AE00012C071F06EC001F06FC002F070C003F070
:100AF00071C004F0000E056E000E066E800E076ECB
:100B00003F0E086EF7EC13F0D8B005D000016C076B
:100B1000D8A06D0717D06EC001F06FC002F070C092
:100B200003F071C004F0000E056E000E066E200E7C
:100B3000076E410E086EF7EC13F0D8A003D0000149
:100B40006C4B6D2B000173BF08D00001735123E182
:100B50000D0E0001725DD8B01ED074C035F075C0A6
:100B600036F076C037F077C038F00001725119ECDA
:100B70000FF028C039F029C03AF02AC03BF02BC052
:100B80003CF021EC0CF035C074F036C075F037C085
:100B900076F038C077F000016DBF08D000016D51CC
:100BA0002AE10A0E00016C5DD8B025D00001745115
:100BB000000175110001761100017711D8B467D0DA
:100BC00074C031F075C032F076C033F077C034F0C5
:100BD00014EC15F03150321033103410D8A457D023
:100BE00000016DBF54D000016D5105E1020E0001FE
:100BF0006C5DD8A04CD06EC001F06FC002F070C028
:100C000003F071C004F05F0E056E700E066E890E63
:100C1000076E400E086EF7EC13F0D8B003D0000159
:100C2000F70E02D00001F80E6C27FF0E6D230001B5
:100C30006C516DEC08F028C06EF029C06FF02AC02E
:100C400070F02BC071F074C001F075C002F076C076
:100C500003F077C004F06EC005F06FC006F070C0FE
:100C600007F071C008F063EC13F001C068F002C037
:100C700069F003C06AF004C06BF0000E0001746FED
:100C8000000E756F000E766F000E776F3CD074C04B
:100C900031F075C032F076C033F077C034F014EC28
:100CA00015F031C068F032C069F033C06AF034C06A
:100CB0006BF074C049F075C04AF076C04BF077C055
:100CC0004CF068C001F069C002F06AC003F06BC06C
:100CD00004F0000E22EC12F001C04DF002C04EF004
:100CE00003C04FF004C050F07FEC17F049C074F01F
:100CF0004AC075F04BC076F04CC077F0000E000192
:100D00006D6F000E6C6F010E0001786F0A0E00010E
:100D10007819D8B41ED000017851040D690EF3245F
:100D2000F66E080EF420F76E0900F5500001685DBC
:100D30000900F550000169590900F55000016A5990
:100D40000900F55000016B59D8A003D00001782BA1
:100D5000DDD7030E00016615596E000E0001671500
:100D60005A6E59505A10D8B453D051C0D9FF52C0FE
:100D7000DAFF2D0E4BD0514A522A4AD068C001F0FA
:100D800069C002F06AC003F06BC004F00001785142
:100D9000040D690EF324F66E080EF420F76E0900B8
:100DA000F5CF05F00900F5CF06F00900F5CF07F003
:100DB0000A00F5CF08F020EC16F001C06EF002C07A
:100DC0006FF003C070F004C071F06EC001F06FC02E
:100DD00002F070C003F071C004F00A0E056E000E40
:100DE000066E000E076E000E086ED1EC16F001C004
:100DF0006EF002C06FF003C070F004C071F000012B
:100E00006E51300F51C0D9FF52C0DAFFDF6EB3D739
:100E10000001780700017829D8B40DD0AFD751C0B0
:100E2000D9FF52C0DAFF300EDF6E514A522A00015C
:100E30006C07D8A06D0700016DBF07D000016D5190
:100E4000EEE100016C05D8B0EAD7000173BF0CD009
:100E50000001735105E1090E0001725DD8A004D0B4
:100E6000080E0001786F02D072C078F0000178514E
:100E70000001725F000E000178BFFF0E0001735B7E
:100E8000000178510001D8B408D051C0D9FF52C038
:100E9000DAFF2E0EDF6E514A522A000178516DECB6
:100EA00008F028C060F029C061F02AC062F02BC0B1
:100EB00063F074C013F075C014F076C015F077C0FD
:100EC00016F060C00FF061C010F062C011F063C096
:100ED00012F079EC0AF00FC031F010C032F011C0FE
:100EE00033F012C034F014EC15F031C068F032C0A9
:100EF00069F033C06AF034C06BF072D068C001F0A2
:100F000069C002F06AC003F06BC004F000017851C0
:100F1000040D690EF324F66E080EF420F76E090036
:100F2000F5CF05F00900F5CF06F00900F5CF07F081
:100F30000A00F5CF08F020EC16F001C06EF002C0F8
:100F40006FF003C070F004C071F06EC001F06FC0AC
:100F500002F070C003F071C004F00A0E056E000EBE
:100F6000066E000E076E000E086ED1EC16F001C082
:100F70006EF002C06FF003C070F004C071F00001A9
:100F80006E51300F51C0D9FF52C0DAFFDF6E514AA7
:100F9000522A68C001F069C002F06AC003F06BC059
:100FA00004F000017851040D690EF324F66E080E6A
:100FB000F420F76E0900F5CF05F00900F5CF06F033
:100FC0000900F5CF07F00A00F5CF08F0D1EC16F0D4
:100FD00001C068F002C069F003C06AF004C06BF0A1
:100FE0000001780700017829D8B40DD087D751C007
:100FF000D9FF52C0DAFF300EDF6E514A522A00018B
:101000007207D8A073070001725100017311D8B4A0
:1010100050D0EDD70001725100017311D8A40DD04A
:10102000000168510001691100016A1100016B1192
:10103000D8A403D00001724B732B800E000178BF3F
:101040007F0E596E000172510001785D00017351ED
:10105000800A5958D8B003D072C078F016D0000179
:101060007351800A596E000178510001725D800E43
:10107000000178BF7F0E5958D8B007D000017851D1
:101080000001726F736B72BF7307030E0001661568
:10109000596E000E000167155A6E59505A10D8B497
:1010A00008D051C0D9FF52C0DAFF2D0EDF6E514A71
:1010B000522A53C0F6FF54C0F7FF534A542A08007F
:1010C000F5CF78F000017851D8A406D451C0D9FFEB
:1010D00052C0DAFF000EDF6E1200306E30AE05D166
:1010E000306C3050800A120FD8A098D0000E0A6ED3
:1010F0000A0E096E000E046E640E036E3050016E0F
:10110000026A01BE020661EC16F001C007F002C0DF
:1011100008F0DEEC15F0D89007360836D890073680
:101120000836240E0726000E0822010E0724F66E4C
:10113000080E0820F76E0900F5CF13F00900F5CF6F
:1011400014F00900F5CF15F00A00F5CF16F0000EE7
:101150000A6E640E096E3050076E086A07BE0806F4
:10116000DEEC15F0D89007360836D89007360836EA
:10117000480E0726000E0822010E0724F66E080E00
:101180000820F76E0900F5CF0FF00900F5CF10F039
:101190000900F5CF11F00A00F5CF12F079EC0AF052
:1011A0000FC02CF010C02DF011C02EF012C02FF087
:1011B0002CC00FF02DC010F02EC011F02FC012F077
:1011C000000E046E0A0E036E3050016E026A01BEFC
:1011D000020661EC16F0D89001360236D89001363E
:1011E0000236010E0124F66E080E0220F76E090089
:1011F000F5CF13F00900F5CF14F00900F5CF15F085
:101200000A00F5CF16F079EC0AF00FC028F010C0F4
:1012100029F011C02AF012C02BF012003050800AC1
:10122000750FD8A04DD0000E0A6E0A0E096E305010
:10123000076E086A07BE0806DEEC15F0D890073680
:101240000836D89007360836240E0726000E0822E6
:10125000010E0724F66E080E0820F76E0900F5CF80
:101260000FF00900F5CF10F00900F5CF11F00A00DA
:10127000F5CF12F0000E046E0A0E036E3050016EB0
:10128000026A01BE020661EC16F0D8900136023601
:10129000D89001360236010E0124F66E080E0220A7
:1012A000F76E0900F5CF13F00900F5CF14F009002F
:1012B000F5CF15F00A00F5CF16F079EC0AF0A5D7B6
:1012C0003050040D010EF324F66E080EF420F76E74
:1012D0000900F5CF28F00900F5CF29F00900F5CF76
:1012E0002AF00A00F5CF2BF012003050800A120FBE
:1012F000D8A098D0000E0A6E0A0E096E000E046E79
:10130000640E036E3050016E026A01BE020661EC8B
:1013100016F001C007F002C008F0DEEC15F0D8901E
:1013200007360836D89007360836240E0726000EF2
:101330000822350E0724F66E080E0820F76E090005
:10134000F5CF13F00900F5CF14F00900F5CF15F033
:101350000A00F5CF16F0000E0A6E640E096E3050CA
:10136000076E086A07BE0806DEEC15F0D89007364F
:101370000836D89007360836480E0726000E082291
:10138000350E0724F66E080E0820F76E0900F5CF1B
:101390000FF00900F5CF10F00900F5CF11F00A00A9
:1013A000F5CF12F079EC0AF00FC02CF010C02DF040
:1013B00011C02EF012C02FF02CC00FF02DC010F075
:1013C0002EC011F02FC012F0000E046E0A0E036E34
:1013D0003050016E026A01BE020661EC16F0D89030
:1013E00001360236D89001360236350E0124F66EEB
:1013F000080E0220F76E0900F5CF13F00900F5CFB3
:1014000014F00900F5CF15F00A00F5CF16F079ECCD
:101410000AF00FC028F010C029F011C02AF012C045
:101420002BF012003050800A750FD8A04DD0000E5E
:101430000A6E0A0E096E3050076E086A07BE08066B
:10144000DEEC15F0D89007360836D8900736083607
:10145000240E0726000E0822350E0724F66E080E0D
:101460000820F76E0900F5CF0FF00900F5CF10F056
:101470000900F5CF11F00A00F5CF12F0000E046E4E
:101480000A0E036E3050016E026A01BE020661EC64
:1014900016F0D89001360236D89001360236350E55
:1014A0000124F66E080E0220F76E0900F5CF13F046
:1014B0000900F5CF14F00900F5CF15F00A00F5CFBB
:1014C00016F079EC0AF0A5D73050040D350EF32450
:1014D000F66E080EF420F76E0900F5CF28F009002B
:1014E000F5CF29F00900F5CF2AF00A00F5CF2BF04F
:1014F00012001250800B1B6E12501224216E11BE6E
:1015000021802150D8B40DD02128D8A408D0000EB5
:101510000F6E000E106E000E116E000E126E118E08
:1015200008D0000E0F6E000E106E000E116E000E31
:10153000126E1650800B1B1A16501624206E15BE04
:1015400020802050D8B40DD02028D8A408D0000E78
:10155000136E000E146E000E156E000E166E158EB4
:1015600008D0000E136E000E146E000E156E000EE5
:10157000166E2050D8B403D02150D8A409D0000E44
:101580000F6E000E106E000E116E000E126E120025
:1015900015500F02F3CF26F0F4CF27F026501C6E23
:1015A0001D6A1E6A1F6A2750226E236A246A256AF2
:1015B00014501002F3CF26F0F4CF27F026501C264B
:1015C000000E1D221E221F2227502226000E23223B
:1015D0002422252213501102F3CF26F0F4CF27F056
:1015E00026501C26000E1D221E221F2227502226B6
:1015F000000E2322242225221EC01FF01DC01EF033
:101600001CC01DF01C6A13501002F3CF26F0F4CF5B
:1016100027F026501C2627501D22000E1E22000EE9
:101620001F2214500F02F3CF26F0F4CF27F02650DC
:101630001C2627501D22000E1E22000E1F221EC037
:101640001FF01DC01EF01CC01DF01C6A13500F02BD
:10165000F3CF26F0F4CF27F026501C2627501D226A
:10166000000E1E22000E1F2215501002F3CF26F08E
:10167000F4CF27F02650222627502322000E2422C2
:10168000000E252214501102F3CF26F0F4CF27F0DC
:101690002650222627502322000E2422000E252227
:1016A00015501102F3CF26F0F4CF27F02650176E15
:1016B0002750186E196A1A6A19C01AF018C019F062
:1016C00017C018F0176A17502226185023221950F5
:1016D00024221A5025221CC017F01DC018F01EC06D
:1016E00019F01FC01AF0190E05D0D8901A3219320D
:1016F00018321732E82EF9D7175022261850232215
:10170000195024221A5025221EC01FF01DC01EF0A1
:101710001CC01DF01C6A205021C017F0186A172643
:10172000000E1822820E1724266EFF0E1820276E38
:101730000FD0D89022362336243625361FBE22807D
:10174000D8901C361D361E361F362606D8A0270612
:1017500024AEEFD7000E206E1FAE16D0FF0E1C1465
:10176000176EFF0E1D14186EFF0E1E14196E7F0EDD
:101770001F141A6E1750181019101A10D8A402D07E
:1017800022A002D0010E206E2050D8B41FD0010E2E
:101790002226000E23222422252225A017D022C093
:1017A00017F023C018F024C019F025C01AF01A341D
:1017B0001A3219321832173217C022F018C023F02B
:1017C00019C024F01AC025F0264A272A27BE0DD0BA
:1017D000275003E12628D8A008D0000E226E000E64
:1017E000236E800E246E7F0E20D027BE05D027509A
:1017F0000EE12604D8B00BD0000E226E000E236E30
:10180000000E246E000E256E000E1B6E0FD026C03B
:1018100021F0FF0E2216FF0E23167F0E2416000E57
:10182000251621B0248ED8902130256E1B5025120C
:1018300022C00FF023C010F024C011F025C012F018
:1018400012003850800B456E38503824476E37BE32
:1018500047804750D8B40DD04728D8A408D0000EF0
:10186000356E000E366E000E376E000E386E378EF7
:1018700006D0000E356E000E366E000E376E000E6E
:10188000386E3C50800B466E45504618D8A4458CA7
:101890003C503C24466E3BBE46804650D8B40DD0EA
:1018A0004628D8A408D0000E396E000E3A6E000EFD
:1018B0003B6E000E3C6E3B8E06D0000E396E000E65
:1018C0003A6E000E3B6E000E3C6E4750465CD8B040
:1018D00022D045AC02D0800E451A47C048F046C021
:1018E00047F048C046F035C048F039C035F048C030
:1018F00039F036C048F03AC036F048C03AF037C048
:1019000048F03BC037F048C03BF038C048F03CC01E
:1019100038F048C03CF0000E486E47503D6E3E6ABD
:101920003D1E3E1E3D4A3E2A46503F6E406A3D5097
:101930003F263E50402240BE2CD0405004E11A0EBB
:101940003F5CD8A026D03550361037103810D8B4A8
:1019500002D0010E01D0000E486E000E356E000E52
:10196000366E000E376E000E386E46C047F015D04A
:1019700048A005D0D89048300109486E02D0D890D0
:10198000483235B0488E3834383237323632353214
:10199000472A4650475CD8A0EBD745BC29D04750D2
:1019A000D8A409D0000E356E000E366E000E376ECC
:1019B000000E386E1200395035263A5036223B5010
:1019C00037223C50382238A083D048A006D0D89087
:1019D000483248500109486E02D0D890483235B09C
:1019E000488E38343832373236323532472A70D062
:1019F0003950355C3A5036583B5037583850800A89
:101A00003D6E3C50800A3D58D8B036D035C03DF0D0
:101A100036C03EF037C03FF038C040F03D1E3E1E9D
:101A20003F1E401E3D2A000E3E223F2240223950DA
:101A30003D24416E3A503E20426E3B503F20436E63
:101A40003C504020446EFF0E4124356EFF0E422074
:101A5000366EFF0E4320376EFF0E4420386E800E28
:101A6000451A486C4850D8A40FD0010E3526000EF8
:101A700036223722382208D03950355E3A50365A4D
:101A80003B50375A3C50385A3550361037103810C2
:101A9000D8A41CD04850D8A419D0000E356E000E22
:101AA000366E000E376E000E386E1200D890353646
:101AB00036363736383648BE358048A002D0D88012
:101AC00001D0D89048364750D8A4470637AEEED755
:101AD000000E466E48AE0AD048C03DF07F0E3D165F
:101AE000D8A402D035A002D0010E466E4650D8B41C
:101AF00020D0010E3526000E36223722382238A09B
:101B000018D035C03DF036C03EF037C03FF038C089
:101B100040F0403440323F323E323D323DC035F03D
:101B20003EC036F03FC037F040C038F04728D8A458
:101B3000472A4728D8B403D04750D8A40DD0000E68
:101B4000356E000E366E000E376E000E386E475042
:101B5000D8A402D0000E456E47A002D0378E01D027
:101B6000379ED8904730386E45BE388E35C035F038
:101B700036C036F037C037F038C038F012002B507E
:101B8000800B346E2B502B243F6E2ABE3F803F507B
:101B9000D8B40DD03F28D8A408D0000E286E000E6F
:101BA000296E000E2A6E000E2B6E2A8E06D0000EB5
:101BB000286E000E296E000E2A6E000E2B6E2F501E
:101BC000800B341A2F502F24406E2EBE4080405080
:101BD000D8B40DD04028D8A408D0000E2C6E000E2A
:101BE0002D6E000E2E6E000E2F6E2E8E06D0000E65
:101BF0002C6E000E2D6E000E2E6E000E2F6E2C50D1
:101C00002D102E102F10D8A415D0000E286E000E07
:101C1000296E000E2A6E000E2B6E800E2A127F0E89
:101C20002B1228C028F029C029F02AC02AF02BC086
:101C30002BF012003F50D8A411D0000E286E000ED9
:101C4000296E000E2A6E000E2B6E28C028F029C0C7
:101C500029F02AC02AF02BC02BF012004050306E21
:101C6000316A301E311E304A312A3F50326E336A9B
:101C700030503226315033227F0E3224396E000E1E
:101C800033203A6E28C035F029C036F02AC037F02C
:101C90002BC038F0000E286E000E296E000E2A6E42
:101CA000000E2B6E000E3B6E000E3C6E000E3D6E65
:101CB000000E3E6E000E406E28D04050D8B411D0B9
:101CC000D8903536363637363836D89028362936D5
:101CD0002A362B363EBE2880D8903B363C363D36E1
:101CE0003E362C50355C2D5036582E5037582F50DC
:101CF0003858D8A009D03E8C2C50355E2D50365A1D
:101D00002E50375A2F50385A402A190E4064D5D7D2
:101D10003550361037103810D8B411D03B800FD062
:101D2000D890283629362A362B363EBE2880D890C1
:101D30003B363C363D363E363906D8A03A062AAE0A
:101D4000EFD7000E406E3EAE16D0FF0E3B14306E45
:101D5000FF0E3C14316EFF0E3D14326E7F0E3E14AA
:101D6000336E3050311032103310D8A402D028A076
:101D700002D0010E406E4050D8B41FD0010E28266C
:101D8000000E29222A222B222BA017D028C030F0A7
:101D900029C031F02AC032F02BC033F03334333253
:101DA00032323132303230C028F031C029F032C006
:101DB0002AF033C02BF0394A3A2A3ABE10D03A50B2
:101DC00003E13928D8A00BD0000E3A6E3968000E16
:101DD000286E000E296E000E2A6E000E2B6E3ABE83
:101DE00005D03A5011E13904D8B00ED0000E3A6E49
:101DF000000E396E000E286E000E296E000E2A6E3F
:101E0000000E2B6E000E346E39C03FF03FA002D0A2
:101E10002A8E01D02A9ED8903F302B6E34502B1240
:101E200028C028F029C029F02AC02AF02BC02BF0A6
:101E30001200346E6D0E3464ACD0000E0A6E0A0EC1
:101E4000096E000E046E640E036E34C001F0026A67
:101E500061EC16F001C007F002C008F0DEEC15F0EE
:101E6000D89007360836D89007360836240E07264D
:101E7000000E0822010E0724F66E080E0820F76EE9
:101E80000900F5CF13F00900F5CF14F00900F5CFE4
:101E900015F00A00F5CF16F0000E0A6E640E096EFA
:101EA00034C007F0086ADEEC15F0D8900736083623
:101EB000D89007360836480E0726000E0822010E75
:101EC0000724F66E080E0820F76E0900F5CF0FF014
:101ED0000900F5CF10F00900F5CF11F00A00F5CF99
:101EE00012F079EC0AF00FC030F010C031F011C0E0
:101EF00032F012C033F0000E046E0A0E036E34C0CE
:101F000001F0026A61EC16F0D89001360236D890E2
:101F100001360236010E0124F66E080E0220F76E1D
:101F20000900F5CF13F00900F5CF14F00900F5CF43
:101F300015F00A00F5CF16F030C00FF031C010F0E8
:101F400032C011F033C012F079EC0AF00FC02CF05F
:101F500010C02DF011C02EF012C02FF02CC00FF0C9
:101F60002DC010F02EC011F02FC012F0000E136E15
:101F7000000E146E000E156E3F0E166E79EC0AF010
:101F80000FC028F010C029F011C02AF012C02BF0A9
:101F900012000A0E346463D0000E046E0A0E036E43
:101FA00034C001F0026A61EC16F0D89001360236B6
:101FB000D89001360236010E0124F66E080E02207A
:101FC000F76E0900F5CF13F00900F5CF14F0090002
:101FD000F5CF15F00A00F5CF16F0000E0A6E0A0EC6
:101FE000096E34C007F0086ADEEC15F0D8900736A9
:101FF0000836D89007360836240E0726000E082229
:10200000010E0724F66E080E0820F76E0900F5CFC2
:102010000FF00900F5CF10F00900F5CF11F00A001C
:10202000F5CF12F079EC0AF00FC030F010C031F0AB
:1020300011C032F012C033F030C00FF031C010F0D8
:1020400032C011F033C012F0000E136E000E146E89
:10205000000E156E3F0E166E79EC0AF091D73450D3
:10206000040D010EF324F66E080EF420F76E09003D
:10207000F5CF0FF00900F5CF10F00900F5CF11F002
:102080000A00F5CF12F0000E136E000E146E000E53
:10209000156E3F0E166E79EC0AF00FC028F010C0D6
:1020A00029F011C02AF012C02BF01200000E436E6E
:1020B000020E436401D044D04350010D970EF32427
:1020C000D96E000EF420DA6EDF50C26EC280C2827A
:1020D000C2B2FED7C450416E426A4350020D7F0E19
:1020E000F324D96E000EF420DA6E41C0DEFF42C048
:1020F000DDFF4350020D7F0EF324D96E000EF42055
:10210000DA6EDECF41F0DDCF42F041C042F0416AED
:10211000C3504112000E42124350020D7F0EF324B1
:10212000D96E000EF420DA6E41C0DEFF42C0DDFF42
:10213000000E086E050E076EA2EC17F0432AB8D702
:1021400020EE81F0DECF41F0DDCF42F0411E421E95
:10215000414A422A00017F5141260001805142221A
:1021600041C001F042C002F0000E02BEFF0E036E3D
:10217000046E010E22EC12F001C05BF002C05CF0B4
:1021800003C05DF004C05EF05BC00FF05CC010F0F7
:102190005DC011F05EC012F0000E136E000E146EE2
:1021A000A00E156E400E166E79EC0AF00FC05BF0B3
:1021B00010C05CF011C05DF012C05EF05BC028F092
:1021C0005CC029F05DC02AF05EC02BF0000E2C6EC2
:1021D000000E2D6E800E2E6E440E2F6EBFEC0DF095
:1021E00028C05BF029C05CF02AC05DF02BC05EF017
:1021F0005BC028F05CC029F05DC02AF05EC02BF007
:10220000CD0E2C6ECC0E2D6E4C0E2E6E3E0E2F6E05
:10221000BFEC0DF028C05BF029C05CF02AC05DF077
:102220002BC05EF020EE83F0DECF01F0DDCF02F0B8
:10223000000E02BEFF0E036E046E010E22EC12F0C1
:1022400001C085F002C086F003C087F004C088F0AA
:10225000000E136E000E146EA00E156E400E166E5C
:1022600085C00FF086C010F087C011F088C012F052
:1022700079EC0AF00FC028F010C029F011C02AF044
:1022800012C02BF0000E2C6E000E2D6E800E2E6EE6
:10229000440E2F6EBFEC0DF028C085F029C086F0EB
:1022A0002AC087F02BC088F085C028F086C029F0AE
:1022B00087C02AF088C02BF093C02CF094C02DF07A
:1022C00095C02EF096C02FF0BFEC0DF028C085F021
:1022D00029C086F02AC087F02BC088F0120056EC87
:1022E00010F053D0828C010E82EC15F0910E126E1C
:1022F000080E136EEDEC17F0020E82EC15F0890E4D
:10230000516E000E526EC20E536E080E546E85C092
:1023100055F086C056F087C057F088C058F065EC7D
:1023200004F0000E0001906F890E126E000E136E05
:102330003CEC18F0890E516E000E526EB30E536EC7
:10234000080E546E5BC055F05CC056F05DC057F08F
:102350005EC058F065EC04F0000E0001906F890E2D
:10236000126E000E136E3CEC18F056EC10F0030EDB
:10237000086EE80E076EA2EC17F016EC18F0000ECF
:10238000086E0A0E076EA2EC17F05BC001F05CC08D
:1023900002F05DC003F05EC004F0000E056E000E9A
:1023A000066E800E076EBF0E086EF7EC13F0D8A015
:1023B00099D785C001F086C002F087C003F088C0BD
:1023C00004F0000E056E000E066E680E076E410EDC
:1023D000086EF7EC13F0D8A085D7000E016E000E42
:1023E000026E800E036EBF0E046E5BC005F05CC013
:1023F00006F05DC007F05EC008F0F7EC13F0D8B04F
:102400001200000E016E000E026E680E036E410E89
:10241000046E85C005F086C006F087C007F088C04E
:1024200008F0F7EC13F0D8B01200A20E126E080EEE
:10243000136EEDEC17F0130E086E880E076EA2EC0B
:1024400017F01200096E0950D8A404AE1AD001C0CA
:1024500005F002C006F003C007F004C008F0051E36
:10246000061E071E081E052A000E06220722082245
:1024700005C00BF006C00CF007C00DF008C00EF050
:1024800008D001C00BF002C00CF003C00DF004C076
:102490000EF00150021003100410D8A409D0000E51
:1024A000016E000E026E000E036E000E046E12002E
:1024B000960E0A6E06D00A2AD8900E320D320C32D1
:1024C0000B32000E0B14056E000E0C14066E000E7F
:1024D0000D14076EFE0E0E14086E05500610071040
:1024E0000810D8B40DD0E7D70A2A010E0B26000E2B
:1024F0000C220D220E22D8900E320D320C320B32ED
:10250000000E0B14056E000E0C14066E000E0D145A
:10251000076EFF0E0E14086E055006100710081007
:10252000D8B407D0E1D70A06D8900B360C360D3652
:102530000E360DBE03D0020E0A60F5D70AB008D0E1
:10254000FF0E0B16FF0E0C167F0E0D16FF0E0E164D
:10255000D8900A320AC005F0066A076A086A05C000
:1025600008F0076A066A056A05500B1206500C123D
:1025700007500D1208500E120950D8A404AE01D015
:102580000E8E0BC001F00CC002F00DC003F00EC0A7
:1025900004F0120003C009F00A6A0B6A023409361B
:1025A00001E30A800950116E1150D8A409D0000E21
:1025B000016E000E026E000E036E000E046E12001D
:1025C00007C009F00A6A0B6A0634093601E30A807B
:1025D0000950106E1050D8A409D0000E016E000EE4
:1025E000026E000E036E000E046E1200028EFF0ECD
:1025F0000116FF0E0216000E0316068EFF0E0516BC
:10260000FF0E0616000E0716000E0C6E000E0D6E65
:10261000000E0E6E000E0F6E7F0E115E1050980FA2
:10262000115E180E106ED8900C360D360E360F3621
:102630000550015C0650025807500358D8A007D037
:102640000550015E0650025A0750035A0C80D8907C
:10265000013602360336102EE6D711AE16D01150D1
:10266000800A970FD8B009D0000E016E000E026EDE
:10267000000E036E000E046E1200D8900F320E3260
:102680000D320C32113EF9D715D0170E11640FD050
:10269000000E016E000E026E000E036E000E046E40
:1026A0001200D8900C360D360E360F36110611502A
:1026B000D8A4F7D70CC001F00DC002F00EC003F093
:1026C0000FC004F01200033404340E6E0E50D8A470
:1026D00009D0000E016E000E026E000E036E000E99
:1026E000046E1200073408340D6E0D50D8A409D0C2
:1026F000000E016E000E026E000E036E000E046EE0
:102700001200038EFF0E0116FF0E0216FF0E0316B7
:10271000000E0416078EFF0E0516FF0E0616FF0E9E
:102720000716000E0816000E096E000E0A6E000E47
:102730000B6E000E0C6E7F0E0E5E0D50A00F0E5E27
:10274000200E0D6ED89009360A360B360C36055021
:10275000015C065002580750035808500458D8A08E
:1027600009D00550015E0650025A0750035A08501E
:10277000045A0980D89001360236033604360D2EED
:10278000E1D70EAE16D00E50800A9F0FD8B009D0F8
:10279000000E016E000E026E000E036E000E046E3F
:1027A0001200D8900C320B320A3209320E3EF9D7A1
:1027B00015D01F0E0E640FD0000E016E000E026EBB
:1027C000000E036E000E046E1200D89009360A3611
:1027D0000B360C360E060E50D8A4F7D709C001F000
:1027E0000AC002F00BC003F00CC004F01200000E8F
:1027F0000114096E000E02140A6E800E03140B6E93
:102800007F0E04140C6E09500A100B100C10D8A483
:1028100008D0000E016E000E026E000E036E000E58
:10282000046E000E0514096E000E06140A6E800E6A
:1028300007140B6E7F0E08140C6E09500A100B1053
:102840000C10D8A408D0000E056E000E066E000E07
:10285000076E000E086E04AE1DD001C009F002C064
:102860000AF003C00BF004C00CF0091E0A1E0B1E78
:102870000C1E092A000E0A220B220C22000E09242B
:10288000016E000E0A20026E000E0B20036E800EF9
:102890000C20046E08AE1DD005C009F006C00AF079
:1028A00007C00BF008C00CF0091E0A1E0B1E0C1E00
:1028B000092A000E0A220B220C22000E0924056EA2
:1028C000000E0A20066E000E0B20076E800E0C20F4
:1028D000086E000E011A000E021A000E031A800E76
:1028E000041A000E051A000E061A000E071A800EB2
:1028F000081A0550015C065002580750035808504A
:102900000458D8B002D0D8901200D88012000F6EB0
:102910000F506CEC18F08A928A968A94000E086E1A
:10292000640E076EA2EC17F0000E096E010E0A6E1F
:10293000010E0B6E000EBEEC17F0000E086E640E5A
:10294000076EA2EC17F0000E096E010E0A6E010E62
:102950000B6E000EBEEC17F0000E086E0A0E076E2E
:10296000A2EC17F0000E096E010E0A6E010E0B6E3E
:10297000000EBEEC17F0000E096E010E0A6E000E7E
:102980000B6E000EBEEC17F0000E096E010E0A6E03
:10299000000E0B6E000EBEEC17F0000E096E000E5E
:1029A0000A6E000E0B6E010EBEEC17F0000E096EE3
:1029B000000E0A6E000E0B6E000EBEEC17F0000E3D
:1029C000096E000E0A6E000E0B6E010EBEEC17F0C3
:1029D000000E096E000E0A6E000E0B6E000EBEECAD
:1029E00017F0000E096E000E0A6E010E0B6E000E3F
:1029F000BEEC17F0000E096E000E0A6E000E0B6E94
:102A0000000EBEEC17F0010E096E010E0A6E000EEC
:102A10000B6E000EBEEC17F016EC18F0000E0D6EEB
:102A2000000E02EC18F01200333434343A6E3A508F
:102A3000D8A409D0000E316E000E326E000E336E37
:102A4000000E346E120031C035F032C036F033C0A3
:102A500037F034C038F0200E05D0D89038323732F5
:102A600036323532E82EF9D73550396E338EFF0EB7
:102A70003116FF0E3216FF0E3316000E3416960E68
:102A80003A5E3AAE16D03A50800A970FD8B009D0C5
:102A9000000E316E000E326E000E336E000E346E7C
:102AA0001200D89034323332323231323A3EF9D7D2
:102AB00015D01F0E3A640FD0000E316E000E326E2C
:102AC000000E336E000E346E1200D890313632365E
:102AD000333634363A063A50D8A4F7D73950D8B4FA
:102AE00008D0341E331E321E316C000E32223322C7
:102AF000342231C031F032C032F033C033F034C050
:102B000034F012000D6E4CD0000E096E000E0A6EED
:102B1000000E0B6E010EBEEC17F0000E096E000EDB
:102B20000A6E000E0B6E000EBEEC17F01200010EC6
:102B3000096E000E0A6E000E0B6E010EBEEC17F051
:102B4000000E096E000E0A6E000E0B6E000EBEEC3B
:102B500017F01200000E096E000E0A6E010E0B6EC9
:102B6000010EBEEC17F0010E096E000E0A6E000E8B
:102B70000B6E000EBEEC17F01200010E096E000E77
:102B80000A6E010E0B6E010EBEEC17F0010E096EFF
:102B9000000E0A6E000E0B6E000EBEEC17F0120057
:102BA0000D50010AD8B4B0D7030AD8B4C0D7010A6F
:102BB000D8B4D0D7070AD8A41200DFD7000E0C6E05
:102BC0000AAE06D0096C0A1ED8B00A2A010E0C6E95
:102BD00008AE06D0076C081ED8B0082A010E0C1AE1
:102BE000000E0E6E000E0D6E09500A10D8B41CD0E7
:102BF000010E0B6E04D0D89009360A360B2A0AAEA5
:102C0000FAD7D8900D360E360950075C0A5008588E
:102C1000D8A005D00950075E0A50085A0D80D890F8
:102C20000A3209320B2EEDD70C50D8B404D00D6CFB
:102C30000E1ED8B00E2A0DC007F00EC008F012000C
:102C4000000E096E000E0A6E000E0B6E000E0C6E6A
:102C50000550061007100810D8B42AD0010E0D6ECA
:102C600006D0D89005360636073608360D2A08AE47
:102C7000F8D7D89009360A360B360C360550015C69
:102C8000065002580750035808500458D8A009D0DD
:102C90000550015E0650025A0750035A0850045A64
:102CA0000980D89008320732063205320D2EE1D75E
:102CB00009C001F00AC002F00BC003F00CC004F020
:102CC0001200000E066E02AE06D0016C021ED8B0D5
:102CD000022A010E066E04AE04D0036C041ED8B0A6
:102CE000042A03500410D8B418D0010E056E04D085
:102CF000D89003360436052A04AEFAD70350015C97
:102D000004500258D8A004D00350015E0450025A67
:102D1000D89004320332052EF1D70650D8B404D02F
:102D2000016C021ED8B0022A01C001F002C002F0FC
:102D30001200116E8A821144010B0D6E1144E84697
:102D4000030B010B0E6E1138E842070B010B0F6EDF
:102D500011380F0B010B106E0EC009F00FC00AF0F6
:102D600010C00BF00D50BEEC17F01138E8461F0BE9
:102D7000010B0D6E1140E8423F0B010B0E6ED89017
:102D80001130010B0F6E1150010B106E0EC009F0C7
:102D90000FC00AF010C00BF00D50BEEC17F08A9275
:102DA00012000550061007100810D8B424D0010EE8
:102DB000096E06D0D8900536063607360836092A39
:102DC00008AEF8D70550015C06500258075003586A
:102DD00008500458D8A008D00550015E0650025A89
:102DE0000750035A0850045AD89008320732063266
:102DF0000532092EE7D701C001F002C002F003C07E
:102E000003F004C004F01200100E6CEC18F0000E79
:102E10000001936FA00E946FCA0E956F460E966FC9
:102E2000000E286E780E296EFD0E2A6E450E2B6E52
:102E300093C02CF094C02DF095C02EF096C02FF0CA
:102E4000BFEC0DF028C093F029C094F02AC095F093
:102E50002BC096F05AEC17F056EC10F06FEC11F016
:102E600056EC10F0FBD700EE79F0180EEE6AE8068B
:102E7000FDE15E6A5D6A5C6A5B6AE00EF66E300ECA
:102E8000F76E000EF86E0900F5CF97F00900F5CF48
:102E900098F00900F5CF99F0E30EF66E300EF76E5C
:102EA000000EF86E0900F5CF5FF0000EF86E00011D
:102EB00004EF17F0000E896E9268000E8A6E000E05
:102EC000936E000E8B6E9468100E87EC14F0BB0EA0
:102ED000126E080E136EEDEC17F0030E086EE80E7E
:102EE000076EA2EC17F016EC18F0000EC26E0B0E77
:102EF000C16EB20EC06EC29AC298C2961200000E87
:102F00004D1A000E4E1A000E4F1A800E501A49C06C
:102F100035F04AC036F04BC037F04CC038F04DC0E9
:102F200039F04EC03AF04FC03BF050C03CF021ECBD
:102F30000CF035C049F036C04AF037C04BF038C00D
:102F40004CF012005FC001F0026A07C003F008C035
:102F500004F029EC18F001C091F002C092F007D003
:102F6000500EE82EFED700019107D8A0920700016D
:102F7000915100019211D8B41200F2D70C6E0BB02F
:102F800002D08A9801D08A880AB002D08A9A01D0E9
:102F90008A8A09B002D08A9C01D08A8C0CB002D0F7
:102FA0008A9E01D08A8E5DEC18F01200015002104A
:102FB00003100410D8B408D0000E011A000E021A33
:102FC000000E031A800E041A01C001F002C002F0C4
:102FD00003C003F004C004F012000AD012C0F6FFD0
:102FE00013C0F7FF0800F55099EC16F0124A132AA7
:102FF00012C0F6FF13C0F7FF0800F5500009D8B45F
:103000001200ECD70E6E000E096E000E0A6E000E56
:103010000B6E000EBEEC17F0010E096E0EC00AF02A
:103020000DC00BF0010EBEEC17F01200000E096E81
:10303000000E0A6E000E0B6E000EBEEC17F0000EB6
:10304000096E000E0A6E010E0B6E000EBEEC17F03C
:10305000120001500302F3CF05F0F4CF06F0015047
:103060000402F350062602500302F350062605C060
:1030700001F006C002F0120009D012C0D9FF13C03F
:10308000DAFFDF5099EC16F0124A132A12C0D9FF6A
:1030900013C0DAFFDF50D8B41200EFD7036E000E72
:1030A000026E3A0E036005D02F0E036402D0010EAB
:1030B000026E02C001F0013012008A86000E086E16
:1030C000010E076EA2EC17F08A96000E086E010E34
:1030D000076EA2EC17F01200016E01C05FF0120043
:0430E00001050D14C5
:020000040020DA
:08000000FFFFFFFFFFFFFFFF00
:020000040030CA
:0E000000000C1F1EFF8381FF0FC00FE00F409A
:00000001FF
