:040000000BEF00F012
:100008005182FACF01F0FBCF02F034ED15F046EF44
:1000180018F0800E00018A6F000E00018B6F17EF39
:1000280004F0250E00019E19D8B407D07CC0D9FF72
:100038007DC0DAFF9EC0DFFFF3D3000E00018D6F95
:10004800000E8C6F7EC0F6FF7FC0F7FF0800F550EA
:100058002E0AD8A434D000018D8D00017E4B7F2B51
:10006800000E0001996F000E986F1ED098C00FF017
:1000780099C010F0000E126E0A0E116E40EC19F0C5
:100088007EC0F6FF7FC0F7FF0800F5500F26000E70
:100098001022D00E0F240001986FFF0E10200001CF
:1000A800996F00017E4B7F2B7EC0F6FF7FC0F7FF64
:1000B8000800F55075EC19F0D8A00CD0D7D7000E71
:1000C8000001996F000E986F00018D8903D000011F
:1000D8008D8513D07EC0F6FF7FC0F7FF00017E4BF1
:1000E8007F2B0800F5CF9EF000019E51000AD8B47E
:1000F800A9D3660AD8B4EBD796D3070E00018D159D
:10010800D8B439D300018DA905D0000E0001996F2C
:10011800060E986F8AC0D9FF8BC0DAFFDECF9AF03F
:10012800DECF9BF0DECF9CF0DECF9DF0040E000109
:100138008A27000E8B2300019DAF15D09AC00FF0BF
:100148009BC010F09CC011F09DC012F0DAEC18F0C2
:100158000FC09AF010C09BF011C09CF012C09DF027
:10016800030E00018C13000E0001936F000E926FB6
:1001780000019A5100019B1100019C1100019D1181
:10018800D8B488D000019C359D35820F0001926F4C
:100198000001936BFF0E932300019207D8A09307E9
:1001A80092C00FF093C010F0000E126E030E116E85
:1001B80040EC19F00FC092F010C093F092C015F007
:1001C80093C016F0000E186E0A0E176EA3EC16F008
:1001D80015C092F016C093F0000193AF04D000014F
:1001E8009207D8A093070001925100089BEC08F0F1
:1001F80036C094F037C095F038C096F039C097F003
:1002080094C01DF095C01EF096C01FF097C020F056
:100218009AC021F09BC022F09CC023F09DC024F01E
:10022800A7EC0AF01DC094F01EC095F01FC096F010
:1002380020C097F094C00FF095C010F096C011F050
:1002480097C012F0000E136E000E146E800E156E1D
:100258003F0E166E9AEC13F0D8B005D00001920745
:10026800D8A0930717D094C00FF095C010F096C08F
:1002780011F097C012F0000E136E000E146E200ECF
:10028800156E410E166E9AEC13F0D8A003D000013B
:10029800924B932B000199BF08D00001995123E19B
:1002A8000D0E0001985DD8B01ED09AC060F09BC0BA
:1002B80061F09CC062F09DC063F00001985130EC81
:1002C8000FF036C064F037C065F038C066F039C04A
:1002D80067F02DEC04F060C09AF061C09BF062C03A
:1002E8009CF063C09DF0000193BF08D000019351BA
:1002F8002AE10A0E0001925DD8B025D000019A517A
:1003080000019B1100019C1100019D11D8B467D018
:100318009AC03FF09BC040F09CC041F09DC042F0A5
:10032800B7EC14F03F50401041104210D8A457D0F9
:10033800000193BF54D00001935105E1020E000162
:10034800925DD8A04CD094C00FF095C010F096C024
:1003580011F097C012F05F0E136E700E146E890EB6
:10036800156E400E166E9AEC13F0D8B003D000014B
:10037800F70E02D00001F80E9227FF0E932300011A
:1003880092519BEC08F036C094F037C095F038C015
:1003980096F039C097F09AC00FF09BC010F09CC03F
:1003A80011F09DC012F094C013F095C014F096C0DF
:1003B80015F097C016F006EC13F00FC08EF010C0C1
:1003C8008FF011C090F012C091F0000E00019A6FEA
:1003D800000E9B6F000E9C6F000E9D6F3CD09AC064
:1003E8003FF09BC040F09CC041F09DC042F0B7EC8C
:1003F80014F03FC08EF040C08FF041C090F042C072
:1004080091F09AC074F09BC075F09CC076F09DC0C6
:1004180077F08EC015F08FC016F090C017F091C01D
:1004280018F0000E26EC11F015C078F016C079F01F
:1004380017C07AF018C07BF022EC18F074C09AF05C
:1004480075C09BF076C09CF077C09DF0000E00014F
:10045800936F000E926F010E00019E6F0A0E00014D
:100468009E19D8B41ED000019E51040D490EF324E4
:10047800F66E7F0EF420F76E0900F55000018E5DD0
:100488000900F55000018F590900F55000019059F5
:100498000900F55000019159D8A003D000019E2B06
:1004A800DDD7030E00018C150001846F000E0001DA
:1004B8008D150001856F0001845100018511D8B4A4
:1004C80054D07CC0D9FF7DC0DAFF2D0E4CD000017E
:1004D8007C4B7D2B4AD08EC00FF08FC010F090C09F
:1004E80011F091C012F000019E51040D490EF32441
:1004F800F66E7F0EF420F76E0900F5CF13F00900B1
:10050800F5CF14F00900F5CF15F00A00F5CF16F075
:10051800E5EC16F00FC094F010C095F011C096F0FD
:1005280012C097F094C00FF095C010F096C011F06B
:1005380097C012F00A0E136E000E146E000E156EA0
:10054800000E166E96EC17F00FC094F010C095F0E0
:1005580011C096F012C097F000019451300F7CC082
:10056800D9FF7DC0DAFFDF6EB2D700019E07000118
:100578009E29D8B40ED0AFD77CC0D9FF7DC0DAFF92
:10058800300EDF6E00017C4B7D2B00019207D8A056
:100598009307000193BF07D000019351EDE10001DB
:1005A8009205D8B0E9D7000199BF0CD00001995144
:1005B80005E1090E0001985DD8A004D0080E0001DD
:1005C8009E6F02D098C09EF000019E510001985F76
:1005D800000E00019EBFFF0E0001995B00019E51B5
:1005E8000001D8B409D07CC0D9FF7DC0DAFF2E0E37
:1005F800DF6E00017C4B7D2B00019E519BEC08F0C7
:1006080036C086F037C087F038C088F039C089F026
:100618009AC021F09BC022F09CC023F09DC024F01A
:1006280086C01DF087C01EF088C01FF089C020F06A
:10063800A7EC0AF01DC03FF01EC040F01FC041F0FB
:1006480020C042F0B7EC14F03FC08EF040C08FF0ED
:1006580041C090F042C091F073D08EC00FF08FC0AF
:1006680010F090C011F091C012F000019E51040DDD
:10067800490EF324F66E7F0EF420F76E0900F5CFCD
:1006880013F00900F5CF14F00900F5CF15F00A00B2
:10069800F5CF16F0E5EC16F00FC094F010C095F009
:1006A80011C096F012C097F094C00FF095C010F0EA
:1006B80096C011F097C012F00A0E136E000E146E59
:1006C800000E156E000E166E96EC17F00FC094F023
:1006D80010C095F011C096F012C097F00001945127
:1006E800300F7CC0D9FF7DC0DAFFDF6E00017C4B84
:1006F8007D2B8EC00FF08FC010F090C011F091C00C
:1007080012F000019E51040D490EF324F66E7F0E7F
:10071800F420F76E0900F5CF13F00900F5CF14F0B7
:100728000900F5CF15F00A00F5CF16F096EC17F092
:100738000FC08EF010C08FF011C090F012C091F071
:1007480000019E0700019E29D8B40ED086D77CC030
:10075800D9FF7DC0DAFF300EDF6E00017C4B7D2BA8
:1007680000019807D8A09907000198510001991134
:10077800D8B459D0ECD70001985100019911D8A4E8
:100788000DD000018E5100018F1100019011000160
:100798009111D8A403D00001984B992B800E000129
:1007A8009EBF7F0E0001846F0001985100019E5D7D
:1007B80000019951800A00018459D8B003D098C02B
:1007C8009EF018D000019951800A0001846F000141
:1007D8009E510001985D800E00019EBF7F0E0001B2
:1007E8008459D8B007D000019E510001986F996BC9
:1007F80098BF9907030E00018C150001846F000E45
:1008080000018D150001856F0001845100018511DB
:10081800D8B409D07CC0D9FF7DC0DAFF2D0EDF6EB9
:1008280000017C4B7D2B7EC0F6FF7FC0F7FF0001E7
:100838007E4B7F2B0800F5CF9EF000019E51D8A477
:1008480015EF00F07CC0D9FF7DC0DAFF000EDF6E27
:10085800120000016351800B0001706F00016351A9
:1008680063250001726F000162AF02D0000172813E
:10087800000172510001D8B412D000017229D8A425
:1008880009D0000E0001606F000E616F000E626FEC
:10089800000E636F0001628F000E000108D0000E89
:1008A8000001606F000E616F000E626F000E636FD3
:1008B80000016751800B0001716F00017051000148
:1008C8007119D8B402D00001708D000167516725F5
:1008D8000001716F000166AF02D000017181000153
:1008E80071510001D8B412D000017129D8A409D0DF
:1008F800000E0001646F000E656F000E666F000E3B
:10090800676F0001668F000E000108D0000E00011D
:10091800646F000E656F000E666F000E676F000152
:1009280072510001715DD8B024D0000170AD03D0C0
:10093800800E0001701B72C073F071C072F073C03A
:1009480071F060C073F064C060F073C064F061C09F
:1009580073F065C061F073C065F062C073F066C083
:1009680062F073C066F063C073F067C063F073C071
:1009780067F0000E0001736F000172510001686F8B
:10098800696B0001681F691F684B692B0001715171
:1009980000016A6F6B6B0001685100016A27000152
:1009A800695100016B2300016BBF3DD000016B5101
:1009B80005E11A0E00016A5DD8A035D0000160512A
:1009C800000161110001621100016311D8B402D065
:1009D800010E01D0000E0001736F000E0001606F60
:1009E800000E616F000E626F000E636F71C072F0CF
:1009F80020D0000173A107D00001D89073310109FC
:100A08000001736F03D00001D8907333000160A117
:100A180002D00001738F00016335633362336133A1
:100A280060330001722B000171510001725DD8A082
:100A3800E0D7000170BD3FD0000172510001D8A479
:100A48000AD0000E0001606F000E616F000E626F29
:100A5800000E636F1200000164510001602700015D
:100A68006551000161230001665100016223000104
:100A7800675100016323000163A1CCD0000173A179
:100A880009D00001D89073330001735101090001A6
:100A9800736F03D00001D8907333000160A102D0B6
:100AA8000001738F00016335633362336133603350
:100AB8000001722BAFD0000164510001605D00019C
:100AC8006551000161590001665100016259000138
:100AD8006351800A0001686F00016751800A0001B4
:100AE8006859D8B050D060C068F061C069F062C081
:100AF8006AF063C06BF00001681F691F6A1F6B1FF3
:100B0800682B000E69236A236B23000164510001DE
:100B1800682500016C6F0001655100016921000121
:100B28006D6F0001665100016A2100016E6F0001BE
:100B3800675100016B2100016F6FFF0E00016C25EA
:100B48000001606FFF0E00016D210001616FFF0E53
:100B580000016E210001626FFF0E00016F2100018C
:100B6800636F800E0001701B0001736D00017351EB
:100B78000001D8A418D0010E00016027000E6123DF
:100B88006223632310D0000164510001605F0001FB
:100B980065510001615B000166510001625B000163
:100BA80067510001635B00016051000161110001A0
:100BB800621100016311D8A42AD000017351000109
:100BC800D8A425D0000E0001606F000E616F000EE2
:100BD800626F000E636F12000001D89060376137B2
:100BE80062376337000173AF02D0000160810001F2
:100BF80073A103D0D880000102D00001D8907337C8
:100C0800000172510001D8B402D00001720700013E
:100C180062AFE2D7000E0001716F000173AF0DD013
:100C280073C068F07F0E00016817D8A403D00001D4
:100C380060A103D0010E0001716F00017151000124
:100C4800D8B426D0010E00016027000E612362236C
:100C58006323000163A11CD060C068F061C069F023
:100C680062C06AF063C06BF000016B356B336A33A6
:100C78006933683368C060F069C061F06AC062F0C7
:100C88006BC063F000017229D8B402D00001722B46
:100C980000017229D8B405D0000172510001D8A40E
:100CA80011D0000E0001606F000E616F000E626FC0
:100CB800000E636F000172510001D8A403D0000E2A
:100CC8000001706F000172A103D00001628F02D091
:100CD8000001629F0001D89072310001636F00012A
:100CE80070AF02D00001638F60C060F061C061F036
:100CF80062C062F063C063F01200000E0001C16FB1
:100D0800000EC26F000EC36F000EC46F850ED56E45
:100D18000B0ED76EDC0ED66EF28EF294F28A000EAF
:100D28000001D26F000ED16F000E0001CE6F000ED1
:100D3800CD6F000E0001D06F000ECF6FD4D0898622
:100D48001AEC19F0E50E206E7F0E216EF1EC18F00A
:100D5800CFC027F0D0C028F0020E296E000E2A6EF0
:100D6800CEEC11F0F90E206E7F0E216EF1EC18F02A
:100D7800CDC027F0CEC028F0020E296E000E2A6ED4
:100D8800CEEC11F0F90E206E7F0E216EF1EC18F00A
:100D9800D1C027F0D2C028F0020E296E000E2A6EAC
:100DA800CEEC11F0EDEC0DF0020EF5EC15F0D30ED3
:100DB80000017C6F000E00017D6FEC0E00017E6F5C
:100DC8007F0E00017F6F49C080F04AC081F04BC0A0
:100DD80082F04CC083F00DEC00F0000E0001DA6FD9
:100DE800D30E206E000E216E53EC19F0D30E0001C5
:100DF8007C6F000E00017D6FDD0E00017E6F7F0E9F
:100E080000017F6FB9C080F0BAC081F0BBC082F02A
:100E1800BCC083F00DEC00F0000E0001DA6FD30EB9
:100E2800206E000E216E53EC19F0000E166E640E43
:100E3800156EA9EC18F0C9C09FF0CAC0A0F0CBC0CD
:100E4800A1F0CCC0A2F000019F1FA01FA11FA21FEC
:100E58009F2B000EA023A123A2230001C151000152
:100E68009F250001A36F0001C2510001A0210001CC
:100E7800A46F0001C3510001A1210001A56F000169
:100E8800C4510001A2210001A66F0001A651000172
:100E9800A5110001A41105E13B0E0001A35DD8A036
:100EA80022D0C1C0C9F0C2C0CAF0C3C0CBF0C4C010
:100EB800CCF0B9C060F0BAC061F0BBC062F0BCC091
:100EC80063F0BDC064F0BEC065F0BFC066F0C0C0CE
:100ED80067F02DEC04F060C0BDF061C0BEF062C0E8
:100EE800BFF063C0C0F0000E0F6E000E106E200E33
:100EF800116E410E126E49C013F04AC014F04BC077
:100F080015F04CC016F09AEC13F0D8A018D72DECB9
:100F180019F08996820E206E7F0E216EF1EC18F082
:100F2800020EF5EC15F0F80E206E7F0E216EF1EC36
:100F380018F00001CF510001D011D8B475D0BDC050
:100F480036F0BEC037F0BFC038F0C0C039F0000E70
:100F58003A6E000E3B6E700E3C6E420E3D6E4FECCC
:100F68000CF036C0BDF037C0BEF038C0BFF039C095
:100F7800C0F0BDC036F0BEC037F0BFC038F0C0C04A
:100F880039F0CFC015F0D0C016F0176A186A000EF5
:100F980026EC11F015C03AF016C03BF017C03CF033
:100FA80018C03DF04FEC0CF036C0BDF037C0BEF0B5
:100FB80038C0BFF039C0C0F0BDC00FF0BEC010F0DF
:100FC800BFC011F0C0C012F0DAEC18F00FC0BDF0CD
:100FD80010C0BEF011C0BFF012C0C0F0D30E0001A7
:100FE8007C6F000E00017D6FF30E00017E6F7F0E97
:100FF80000017F6FBDC080F0BEC081F0BFC082F02D
:10100800C0C083F00DEC00F0000E0001DA6FD30EC3
:10101800206E000E216E53EC19F0FB0E206E7F0E31
:10102800216EF1EC18F07FD00001C1510001C2110E
:101038000001C3110001C411D8B46FD00001BD5123
:101048000001BE110001BF110001C011D8B465D064
:10105800BDC036F0BEC037F0BFC038F0C0C039F0F0
:10106800CDC00FF0CEC010F0000E126E3C0E116E07
:1010780040EC19F00FC015F010C016F0176A186A86
:10108800000E26EC11F015C03AF016C03BF017C060
:101098003CF018C03DF04FEC0CF036C0BDF037C046
:1010A800BEF038C0BFF039C0C0F0BDC00FF0BEC040
:1010B80010F0BFC011F0C0C012F0DAEC18F00FC089
:1010C800BDF010C0BEF011C0BFF012C0C0F0D30E0A
:1010D80000017C6F000E00017D6FE00E00017E6F45
:1010E8007F0E00017F6FBDC080F0BEC081F0BFC021
:1010F80082F0C0C083F00DEC00F0000E0001DA6F42
:10110800D30E206E000E216E53EC19F0FB0E206EEC
:101118007F0E216EF1EC18F006D0D40E206E7F0EF3
:10112800216EF1EC18F0050E65EC19F012003E6E18
:101138003EAE05D13E6C3E50800A120FD8A098D022
:10114800000E186E0A0E176E000E126E640E116EE7
:101158003E500F6E106A0FBE100626EC17F00FC037
:1011680015F010C016F0A3EC16F0D8901536163608
:10117800D89015361636240E1526000E1622E10EC6
:101188001524F66E7E0E1620F76E0900F5CF21F0B5
:101198000900F5CF22F00900F5CF23F00A00F5CFBA
:1011A80024F0000E186E640E176E3E50156E166A07
:1011B80015BE1606A3EC16F0D89015361636D8903C
:1011C80015361636480E1526000E1622E10E152481
:1011D800F66E7E0E1620F76E0900F5CF1DF0090099
:1011E800F5CF1EF00900F5CF1FF00A00F5CF20F06B
:1011F800A7EC0AF01DC03AF01EC03BF01FC03CF03F
:1012080020C03DF03AC01DF03BC01EF03CC01FF0AE
:101218003DC020F0000E126E0A0E116E3E500F6E89
:10122800106A0FBE100626EC17F0D8900F3610364D
:10123800D8900F361036E10E0F24F66E7E0E102071
:10124800F76E0900F5CF21F00900F5CF22F009006B
:10125800F5CF23F00A00F5CF24F0A7EC0AF01DC063
:1012680036F01EC037F01FC038F020C039F0120029
:101278003E50800A750FD8A04DD0000E186E0A0E89
:10128800176E3E50156E166A15BE1606A3EC16F0BC
:10129800D89015361636D89015361636240E1526DB
:1012A800000E1622E10E1524F66E7E0E1620F76E3D
:1012B8000900F5CF1DF00900F5CF1EF00900F5CFA4
:1012C8001FF00A00F5CF20F0000E126E0A0E116E04
:1012D8003E500F6E106A0FBE100626EC17F0D8901D
:1012E8000F361036D8900F361036E10E0F24F66EF2
:1012F8007E0E1020F76E0900F5CF21F00900F5CF1A
:1013080022F00900F5CF23F00A00F5CF24F0A7EC6E
:101318000AF0A5D73E50040DE10EF324F66E7E0EBA
:10132800F420F76E0900F5CF36F00900F5CF37F055
:101338000900F5CF38F00A00F5CF39F012003E5019
:10134800800A120FD8A098D0000E186E0A0E176ED9
:10135800000E126E640E116E3E500F6E106A0FBEB4
:10136800100626EC17F00FC015F010C016F0A3EC0D
:1013780016F0D89015361636D89015361636240E2F
:101388001526000E1622150E1524F66E7F0E162051
:10139800F76E0900F5CF21F00900F5CF22F009001A
:1013A800F5CF23F00A00F5CF24F0000E186E640E76
:1013B800176E3E50156E166A15BE1606A3EC16F08B
:1013C800D89015361636D89015361636480E152686
:1013D800000E1622150E1524F66E7F0E1620F76ED7
:1013E8000900F5CF1DF00900F5CF1EF00900F5CF73
:1013F8001FF00A00F5CF20F0A7EC0AF01DC03AF064
:101408001EC03BF01FC03CF020C03DF03AC01DF0AC
:101418003BC01EF03CC01FF03DC020F0000E126E15
:101428000A0E116E3E500F6E106A0FBE100626ECA3
:1014380017F0D8900F361036D8900F361036150E94
:101448000F24F66E7F0E1020F76E0900F5CF21F0FD
:101458000900F5CF22F00900F5CF23F00A00F5CFF7
:1014680024F0A7EC0AF01DC036F01EC037F01FC0EC
:1014780038F020C039F012003E50800A750FD8A00D
:101488004DD0000E186E0A0E176E3E50156E166A75
:1014980015BE1606A3EC16F0D89015361636D89059
:1014A80015361636240E1526000E1622150E15248E
:1014B800F66E7F0E1620F76E0900F5CF1DF00900B5
:1014C800F5CF1EF00900F5CF1FF00A00F5CF20F088
:1014D800000E126E0A0E116E3E500F6E106A0FBE8D
:1014E800100626EC17F0D8900F361036D8900F3625
:1014F8001036150E0F24F66E7F0E1020F76E0900B9
:10150800F5CF21F00900F5CF22F00900F5CF23F03F
:101518000A00F5CF24F0A7EC0AF0A5D73E50040D39
:10152800150EF324F66E7F0EF420F76E0900F5CF42
:1015380036F00900F5CF37F00900F5CF38F00A008A
:10154800F5CF39F012002050800B296E205020244E
:101558002F6E1FBE2F802F50D8B40DD02F28D8A49F
:1015680008D0000E1D6E000E1E6E000E1F6E000EBF
:10157800206E1F8E08D0000E1D6E000E1E6E000E0F
:101588001F6E000E206E2450800B291A245024242C
:101598002E6E23BE2E802E50D8B40DD02E28D8A45F
:1015A80008D0000E216E000E226E000E236E000E73
:1015B800246E238E08D0000E216E000E226E000EBF
:1015C800236E000E246E2E50D8B403D02F50D8A40A
:1015D80009D0000E1D6E000E1E6E000E1F6E000E4E
:1015E800206E120023501D02F3CF34F0F4CF35F0F3
:1015F80034502A6E2B6A2C6A2D6A3550306E316A47
:10160800326A336A22501E02F3CF34F0F4CF35F039
:1016180034502A26000E2B222C222D22355030261B
:10162800000E31223222332221501F02F3CF34F030
:10163800F4CF35F034502A26000E2B222C222D22EE
:1016480035503026000E3122322233222CC02DF0A4
:101658002BC02CF02AC02BF02A6A21501E02F3CF8F
:1016680034F0F4CF35F034502A2635502B22000EB2
:101678002C22000E2D2222501D02F3CF34F0F4CF7D
:1016880035F034502A2635502B22000E2C22000E1D
:101698002D222CC02DF02BC02CF02AC02BF02A6A4A
:1016A80021501D02F3CF34F0F4CF35F034502A2600
:1016B80035502B22000E2C22000E2D2223501E0204
:1016C800F3CF34F0F4CF35F0345030263550312292
:1016D800000E3222000E332222501F02F3CF34F0C4
:1016E800F4CF35F03450302635503122000E3222F6
:1016F800000E332223501F02F3CF34F0F4CF35F01D
:101708003450256E3550266E276A286A27C028F07F
:1017180026C027F025C026F0256A255030262650F9
:10172800312227503222285033222AC025F02BC0DC
:1017380026F02CC027F02DC028F0190E05D0D8901F
:101748002832273226322532E82EF9D7255030267E
:101758002650312227503222285033222CC02DF017
:101768002BC02CF02AC02BF02A6A2E502FC025F04F
:10177800266A2526000E2622820E2524346EFF0EA8
:101788002620356E0FD0D890303631363236333683
:101798002DBE3080D8902A362B362C362D3634067E
:1017A800D8A0350632AEEFD7000E2E6E2DAE16D06D
:1017B800FF0E2A14256EFF0E2B14266EFF0E2C1416
:1017C800276E7F0E2D14286E2550261027102810FE
:1017D800D8A402D030A002D0010E2E6E2E50D8B45C
:1017E8001FD0010E3026000E31223222332233A0C0
:1017F80017D030C025F031C026F032C027F033C0F2
:1018080028F02834283227322632253225C030F0F5
:1018180026C031F027C032F028C033F0344A352AC8
:1018280035BE0DD0355003E13428D8A008D0000EBD
:10183800306E000E316E800E326E7F0E20D035BEB7
:1018480005D035500EE13404D8B00BD0000E306E00
:10185800000E316E000E326E000E336E000E296ED1
:101868000FD034C02FF0FF0E3016FF0E31167F0E4A
:101878003216000E33162FB0328ED8902F30336EBA
:101888002950331230C01DF031C01EF032C01FF095
:1018980033C020F012003950800B0001606F3950BE
:1018A800392400016B6F38AE02D000016B81000152
:1018B8006B510001D8B40ED000016B29D8A408D010
:1018C800000E366E000E376E000E386E000E396E42
:1018D800388E06D0000E366E000E376E000E386E4B
:1018E800000E396E3D50800B0001601B3D503D24B9
:1018F80000016C6F3CAE02D000016C8100016C519C
:101908000001D8B40ED000016C29D8A408D0000E6C
:101918003A6E000E3B6E000E3C6E000E3D6E3C8E25
:1019280006D0000E3A6E000E3B6E000E3C6E000EA6
:101938003D6E3A503B103C103D10D8A415D0000E17
:10194800366E000E376E000E386E000E396E800E41
:1019580038127F0E391236C036F037C037F038C02B
:1019680038F039C039F0120000016B510001D8A4D9
:1019780011D0000E366E000E376E000E386E000E57
:10198800396E36C036F037C037F038C038F039C055
:1019980039F0120000016C513E6E3F6A3E1E3F1E38
:1019A8003E4A3F2A00016B51406E416A3E50402634
:1019B8003F5041227F0E40240001656F000E4120F8
:1019C8000001666F36C061F037C062F038C063F05E
:1019D80039C064F0000E366E000E376E000E386E99
:1019E800000E396E000E0001676F000E686F000E62
:1019F800696F000E6A6F000E00016C6F37D000012E
:101A08006C510001D8B414D00001D8906137623706
:101A180063376437D890363637363836393600016A
:101A28006ABF36800001D8906737683769376A37E8
:101A38003A500001615D3B50000162593C50000181
:101A480063593D5000016459D8A00ED000016A8D39
:101A58003A500001615F3B500001625B3C5000015D
:101A6800635B3D500001645B00016C2B190E0001A3
:101A78006C65C5D700016151000162110001631155
:101A880000016411D8B415D00001678112D0D89034
:101A9800363637363836393600016ABF36800001A7
:101AA800D8906737683769376A3700016507D8A063
:101AB800660738AEECD7000E00016C6F00016AAF04
:101AC8001BD0FF0E000167153E6EFF0E0001681562
:101AD8003F6EFF0E00016915406E7F0E00016A150A
:101AE800416E3E503F1040104110D8A402D036A09D
:101AF80003D0010E00016C6F00016C510001D8B4D5
:101B080020D0010E3626000E37223822392239A07D
:101B180018D036C03EF037C03FF038C040F039C06A
:101B280041F04134413240323F323E323EC036F01D
:101B38003FC037F040C038F041C039F00001654B74
:101B4800662B000166BF13D00001665104E1000155
:101B58006529D8A00CD0000E0001666F6569000EDB
:101B6800366E000E376E000E386E000E396E0001AC
:101B780066BF07D00001665114E100016505D8B0C1
:101B880010D0000E0001666F000E656F000E366EF5
:101B9800000E376E000E386E000E396E000E000112
:101BA800606F65C06BF000016BA102D0388E01D068
:101BB800389E0001D8906B31396E0001605139129E
:101BC80036C036F037C037F038C038F039C039F091
:101BD8001200000E426E020E426401D064D04250E0
:101BE800010D4D0EF324D96E000EF420DA6EDF508D
:101BF800C26EC282C2B2FED7C4CF6DF000016E6B56
:101C08006F6B706B4250040DA70EF324D96E000E53
:101C1800F420DA6E6DC0DEFF6EC0DEFF6FC0DEFF3F
:101C280070C0DEFF4250040DA70EF324D96E000EDB
:101C3800F420DA6EDECF6DF0DECF6EF0DECF6FF01F
:101C4800DECF70F06FC070F06EC06FF06DC06EF0D8
:101C580000016D6BC35000016D110001716F00012F
:101C68006E510001726F00016F510001736F000126
:101C780070510001746F4250040DA70EF324D96E01
:101C8800000EF420DA6E71C0DEFF72C0DEFF73C092
:101C9800DEFF74C0DEFF000E166E050E156EA9EC91
:101CA80018F0422A98D7ABC06DF0ACC06EF0ADC04A
:101CB8006FF0AEC070F000016D1F6E1F6F1F701FB8
:101CC8006D2B000E6E236F2370230001A7510001B6
:101CD8006D25156E0001A85100016E21166E0001D8
:101CE800A95100016F21176E0001AA51000170214E
:101CF800186E010E26EC11F015C0B9F016C0BAF036
:101D080017C0BBF018C0BCF0B9C01DF0BAC01EF0B7
:101D1800BBC01FF0BCC020F0000E216E000E226E6A
:101D2800A00E236E400E246EA7EC0AF01DC0B9F079
:101D38001EC0BAF01FC0BBF020C0BCF0B9C036F05E
:101D4800BAC037F0BBC038F0BCC039F0000E3A6EEC
:101D5800000E3B6E800E3C6E440E3D6E4FEC0CF058
:101D680036C0B9F037C0BAF038C0BBF039C0BCF0E3
:101D7800B9C036F0BAC037F0BBC038F0BCC039F0D3
:101D8800CD0E3A6ECC0E3B6E4C0E3C6E3E0E3D6E4A
:101D98004FEC0CF036C0B9F037C0BAF038C0BBF021
:101DA80039C0BCF0AFC015F0B0C016F0B1C017F024
:101DB800B2C018F0010E26EC11F015C049F016C09B
:101DC8004AF017C04BF018C04CF0000E216E000E00
:101DD800226EA00E236E400E246E49C01DF04AC02C
:101DE8001EF04BC01FF04CC020F0A7EC0AF01DC03D
:101DF80036F01EC037F01FC038F020C039F0000E92
:101E08003A6E000E3B6E800E3C6E440E3D6E4FECFB
:101E18000CF036C049F037C04AF038C04BF039C032
:101E28004CF049C036F04AC037F04BC038F04CC0CF
:101E380039F045C03AF046C03BF047C03CF048C0D6
:101E48003DF04FEC0CF036C049F037C04AF038C0CE
:101E58004BF039C04CF01200426E6D0E4264ACD0AB
:101E6800000E186E0A0E176E000E126E640E116EBA
:101E780042C00FF0106A26EC17F00FC015F010C022
:101E880016F0A3EC16F0D89015361636D8901536FD
:101E98001636240E1526000E1622E10E1524F66EAF
:101EA8007E0E1620F76E0900F5CF21F00900F5CF58
:101EB80022F00900F5CF23F00A00F5CF24F0000E38
:101EC800186E640E176E42C015F0166AA3EC16F071
:101ED800D89015361636D89015361636480E15266B
:101EE800000E1622E10E1524F66E7E0E1620F76EF1
:101EF8000900F5CF1DF00900F5CF1EF00900F5CF58
:101F08001FF00A00F5CF20F0A7EC0AF01DC03EF044
:101F18001EC03FF01FC040F020C041F0000E126EFE
:101F28000A0E116E42C00FF0106A26EC17F0D89016
:101F38000F361036D8900F361036E10E0F24F66E95
:101F48007E0E1020F76E0900F5CF21F00900F5CFBD
:101F580022F00900F5CF23F00A00F5CF24F03EC0A7
:101F68001DF03FC01EF040C01FF041C020F0A7EC9C
:101F78000AF01DC03AF01EC03BF01FC03CF020C064
:101F88003DF03AC01DF03BC01EF03CC01FF03DC004
:101F980020F0000E216E000E226E000E236E3F0E02
:101FA800246EA7EC0AF01DC036F01EC037F01FC023
:101FB80038F020C039F012000A0E426463D0000ED7
:101FC800126E0A0E116E42C00FF0106A26EC17F05E
:101FD800D8900F361036D8900F361036E10E0F24F1
:101FE800F66E7E0E1020F76E0900F5CF21F009007D
:101FF800F5CF22F00900F5CF23F00A00F5CF24F041
:10200800000E186E0A0E176E42C015F0166AA3EC81
:1020180016F0D89015361636D89015361636240E82
:102028001526000E1622E10E1524F66E7E0E1620D9
:10203800F76E0900F5CF1DF00900F5CF1EF0090075
:10204800F5CF1FF00A00F5CF20F0A7EC0AF01DC06D
:102058003EF01EC03FF01FC040F020C041F03EC01F
:102068001DF03FC01EF040C01FF041C020F0000E20
:10207800216E000E226E000E236E3F0E246EA7EC1A
:102088000AF091D74250040DE10EF324F66E7E0E4D
:10209800F420F76E0900F5CF1DF00900F5CF1EF00A
:1020A8000900F5CF1FF00A00F5CF20F0000E216ED1
:1020B800000E226E000E236E3F0E246EA7EC0AF06F
:1020C8001DC036F01EC037F01FC038F020C039F0F0
:1020D8001200EDEC0DF059D0828C010EF5EC15F0E4
:1020E800710E206E7F0E216EF1EC18F0020EF5ECE9
:1020F80015F0D30E00017C6F000E00017D6FEC0E11
:1021080000017E6F7F0E00017F6F49C080F04AC0DA
:1021180081F04BC082F04CC083F00DEC00F0000E53
:102128000001DA6FD30E206E000E216E53EC19F009
:10213800D30E00017C6F000E00017D6FDD0E0001E3
:102148007E6F7F0E00017F6FB9C080F0BAC081F04A
:10215800BBC082F0BCC083F00DEC00F0000E0001A3
:10216800DA6FD30E206E000E216E53EC19F0EDECF1
:102178000DF0010E166EF40E156EA9EC18F0000E97
:10218800166E010E156EA9EC18F0B9C00FF0BAC0A2
:1021980010F0BBC011F0BCC012F0000E136E000EA0
:1021A800146E000E156EBF0E166E9AEC13F0D8A0C2
:1021B80093D749C00FF04AC010F04BC011F04CC083
:1021C80012F0000E136E000E146E580E156E410EAE
:1021D800166E9AEC13F0D8A07FD7000E0F6E000E83
:1021E800106E800E116EBF0E126EB9C013F0BAC019
:1021F80014F0BBC015F0BCC016F09AEC13F0D8B0C0
:102208001200000E0F6E000E106E680E116E410E59
:10221800126E49C013F04AC014F04BC015F04CC000
:1022280016F09AEC13F0D8B01200930E206E7F0EC1
:10223800216EF1EC18F0130E166E880E156EA9ECCF
:1022480018F012001D6E1D50D8A418AE1AD015C073
:1022580019F016C01AF017C01BF018C01CF0191E90
:102268001A1E1B1E1C1E192A000E1A221B221C22B3
:1022780019C01FF01AC020F01BC021F01CC022F0AA
:1022880008D015C01FF016C020F017C021F018C0E4
:1022980022F01550161017101810D8A409D0000EE7
:1022A800156E000E166E000E176E000E186E1200D8
:1022B800960E1E6E06D01E2AD89022322132203267
:1022C8001F32000E1F14196E000E20141A6E000E15
:1022D80021141B6EFE0E22141C6E19501A101B10AE
:1022E8001C10D8B40DD0E7D71E2A010E1F26000EE9
:1022F800202221222222D8902232213220321F325B
:10230800000E1F14196E000E20141A6E000E2114F0
:102318001B6EFF0E22141C6E19501A101B101C1075
:10232800D8B407D0E1D71E06D8901F3620362136FC
:10233800223621BE03D0020E1E60F5D71EB008D08B
:10234800FF0E1F16FF0E20167F0E2116FF0E2216F7
:10235800D8901E321EC019F01A6A1B6A1C6A19C06E
:102368001CF01B6A1A6A196A19501F121A50201297
:102378001B5021121C5022121D50D8A418AE01D097
:10238800228E1FC015F020C016F021C017F022C001
:1023980018F0120020EEB3F010EE30F0050EDBCF8F
:1023A800E3FFE806FCE2300E1F6E000E206E27C029
:1023B80021F028C022F0000E246E0A0E236E67EC6E
:1023C80018F02950D8B47ED02950010D300EF324CE
:1023D800D96E000EF420DA6E000EDF6E4BD02904A1
:1023E800366E3650D8B446D0FF0E2B6EFF0E2C6ECC
:1023F80036502D6E2E6A2B502D262C502E22300E44
:102408002D24D96E000E2E20DA6E3650010D300EB6
:10241800F324E16E000EF420E26EDFCFE7FF2A041A
:10242800D8A413D0FF0E2B6EFF0E2C6E36502D6ED7
:102438002E6A2B502D262C502E22300E2D24D96E8C
:10244800000E2E20DA6E200E12D0FF0E2B6EFF0E1D
:102458002C6E36502D6E2E6A2B502D262C502E2287
:10246800300E2D24D96E000E2E20DA6E300EDF6E5F
:102478003606B7D7FF0E2B6EFF0E2C6E29502D6E29
:102488002E6A2B502D262C502E22300E2D24D96E3C
:10249800000E2E20DA6E3A0EDF60A1D7FF0E2B6EEB
:1024A800FF0E2C6E29502D6E2E6A2B502D262C5087
:1024B8002E22300E2D24D96E000E2E20DA6E2F0E0D
:1024C800DF648DD7300E206E000E216E53EC19F0AC
:1024D800120011C017F0186A196A1034173601E390
:1024E800188017501F6E1F50D8A409D0000E0F6E09
:1024F800000E106E000E116E000E126E120015C046
:1025080017F0186A196A1434173601E3188017503F
:102518001E6E1E50D8A409D0000E0F6E000E106E4D
:10252800000E116E000E126E1200108EFF0E0F16A6
:10253800FF0E1016000E1116148EFF0E1316FF0E46
:102548001416000E1516000E1A6E000E1B6E000EE5
:102558001C6E000E1D6E7F0E1F5E1E50980F1F5EB4
:10256800180E1E6ED8901A361B361C361D361350A0
:102578000F5C1450105815501158D8A007D013509C
:102588000F5E1450105A1550115A1A80D8900F36F1
:10259800103611361E2EE6D71FAE16D01F50800AF1
:1025A800970FD8B009D0000E0F6E000E106E000EF7
:1025B800116E000E126E1200D8901D321C321B32A2
:1025C8001A321F3EF9D715D0170E1F640FD0000E10
:1025D8000F6E000E106E000E116E000E126E1200BD
:1025E800D8901A361B361C361D361F061F50D8A425
:1025F800F7D71AC00FF01BC010F01CC011F01DC097
:1026080012F01200113412341C6E1C50D8A409D0D8
:10261800000E0F6E000E106E000E116E000E126E80
:102628001200153416341B6E1B50D8A409D0000EA6
:102638000F6E000E106E000E116E000E126E12005C
:10264800118EFF0E0F16FF0E1016FF0E1116000E3C
:102658001216158EFF0E1316FF0E1416FF0E151602
:10266800000E1616000E176E000E186E000E196E6C
:10267800000E1A6E7F0E1C5E1B50A00F1C5E200EF3
:102688001B6ED8901736183619361A3613500F5C49
:10269800145010581550115816501258D8A009D077
:1026A80013500F5E1450105A1550115A1650125AE2
:1026B8001780D8900F361036113612361B2EE1D7F8
:1026C8001CAE16D01C50800A9F0FD8B009D0000E3F
:1026D8000F6E000E106E000E116E000E126E1200BC
:1026E800D8901A321932183217321C3EF9D715D041
:1026F8001F0E1C640FD0000E0F6E000E106E000E21
:10270800116E000E126E1200D89017361836193650
:102718001A361C061C50D8A4F7D717C00FF018C0DB
:1027280010F019C011F01AC012F01200000E0F14A8
:10273800176E000E1014186E800E1114196E7F0E8D
:1027480012141A6E1750181019101A10D8A408D09D
:10275800000E0F6E000E106E000E116E000E126E3F
:10276800000E1314176E000E1414186E800E151434
:10277800196E7F0E16141A6E1750181019101A10A9
:10278800D8A408D0000E136E000E146E000E156E3D
:10279800000E166E12AE1DD00FC017F010C018F044
:1027A80011C019F012C01AF0171E181E191E1A1E91
:1027B800172A000E182219221A22000E17240F6E4B
:1027C800000E1820106E000E1920116E800E1A20AF
:1027D800126E16AE1DD013C017F014C018F015C035
:1027E80019F016C01AF0171E181E191E1A1E172ADD
:1027F800000E182219221A22000E1724136E000E3A
:102808001820146E000E1920156E800E1A20166EF0
:10281800000E0F1A000E101A000E111A800E121A4E
:10282800000E131A000E141A000E151A800E161A2E
:1028380013500F5C14501058155011581650125858
:10284800D8B002D0D8901200D88012001D6E1D504A
:1028580093EC19F0819281968194000E166E640EA5
:10286800156EA9EC18F0000E176E010E186E010E09
:10287800196E000EC2EC18F0000E166E640E156E7E
:10288800A9EC18F0000E176E010E186E010E196EE5
:10289800000EC2EC18F0000E166E0A0E156EA9ECAA
:1028A80018F0000E176E010E186E010E196E000E4C
:1028B800C2EC18F0000E176E010E186E000E196E9D
:1028C800000EC2EC18F0000E176E010E186E000E06
:1028D800196E000EC2EC18F0000E176E000E186E7E
:1028E800000E196E010EC2EC18F0000E176E000EE5
:1028F800186E000E196E000EC2EC18F0000E176E5E
:10290800000E186E000E196E010EC2EC18F0000EC3
:10291800176E000E186E000E196E000EC2EC18F03D
:10292800000E176E000E186E010E196E000EC2EC26
:1029380018F0000E176E000E186E000E196E000EBD
:10294800C2EC18F0010E176E010E186E000E196E0B
:10295800000EC2EC18F02DEC19F0000E1B6E000EE4
:1029680006EC19F01200413442340001656F000191
:102978006551D8A409D0000E3F6E000E406E000EBF
:10298800416E000E426E12003FC060F040C061F020
:1029980041C062F042C063F0200E06D00001D8901A
:1029A8006333623361336033E82EF8D70001605136
:1029B8000001646F418EFF0E3F16FF0E4016FF0E9A
:1029C8004116000E4216960E0001655F000165AFC4
:1029D80018D000016551800A970FD8B009D0000EB1
:1029E8003F6E000E406E000E416E000E426E1200E9
:1029F800D8904232413240323F320001653FF8D729
:102A080019D01F0E0001656510D0000E3F6E000E34
:102A1800406E000E416E000E426E1200D8903F3696
:102A28004036413642360001650700016551000114
:102A3800D8A4F4D7000164510001D8B408D0421ECC
:102A4800411E401E3F6C000E4022412242223FC0E0
:102A58003FF040C040F041C041F042C042F0120097
:102A68000600E9CF03F0EACF04F0E1CF05F0E2CFAA
:102A780006F0D9CF07F0DACF08F0F3CF09F0F4CF9A
:102A88000AF0F6CF0BF0F7CF0CF0F8CF0DF0F5CF3A
:102A98000EF0F2940B0ED76EDC0ED66E010E00010E
:102AA800C127000EC223C323C4230001D14BD22B5C
:102AB8003B0E0001D1190001D211D8A417D0000E85
:102AC8000001D26F000ED16F0001CD4BCE2B3B0E13
:102AD8000001CD190001CE11D8A408D0000E0001C4
:102AE800CE6F000ECD6F0001CF4BD02B0EC0F5FF7F
:102AF8000DC0F8FF0CC0F7FF0BC0F6FF0AC0F4FFCB
:102B080009C0F3FF08C0DAFF07C0D9FF06C0E2FF1B
:102B180005C0E1FF04C0EAFF03C0E9FF02C0FBFFF4
:102B280001C0FAFF51921100100E93EC19F0000E3B
:102B3800456EA00E466ECA0E476E460E486E000ED3
:102B4800366E780E376EFD0E386E450E396E45C0FE
:102B58003AF046C03BF047C03CF048C03DF04FEC6F
:102B68000CF036C045F037C046F038C047F039C0E1
:102B780048F0C9EC17F0EDEC0DF06DEC10F02DEC11
:102B880019F081EC06F02DEC19F016D01AEC19F0BA
:102B9800C40E206E7F0E216EF1EC18F0020EF5ECDB
:102BA80015F0A40E206E7F0E216EF1EC18F0010EC8
:102BB80065EC19F0EDEC0DF0000E0F6E000E106EC6
:102BC800A00E116E400E126E49C013F04AC014F0E8
:102BD8004BC015F04CC016F09AEC13F0D8B0CDD716
:102BE800D5D71B6E4CD0000E176E000E186E000E57
:102BF800196E010EC2EC18F0000E176E000E186E5A
:102C0800000E196E000EC2EC18F01200010E176EBD
:102C1800000E186E000E196E010EC2EC18F0000EB0
:102C2800176E000E186E000E196E000EC2EC18F02A
:102C38001200000E176E000E186E010E196E010EAE
:102C4800C2EC18F0010E176E000E186E000E196E09
:102C5800000EC2EC18F01200010E176E000E186E6E
:102C6800010E196E010EC2EC18F0010E176E000E5F
:102C7800186E000E196E000EC2EC18F012001B50F0
:102C8800010AD8B4B0D7030AD8B4C0D7010AD8B457
:102C9800D0D7070AD8A41200DFD718C01CF019C073
:102CA8001DF01CC00FF01DC010F01AC011F01BC0A1
:102CB80012F0F9EC17F00FC01CF010C01DF0164A06
:102CC800172A1C501D10D8A4ECD716C0D9FF17C05E
:102CD800DAFF000EDF6E1606D8A0170618C00FF030
:102CE80019C010F01AC011F01BC012F088EC18F0CF
:102CF8000F501E6E18C00FF019C010F01AC011F056
:102D08001BC012F0F9EC17F00FC018F010C019F042
:102D1800090E1E6402D0070E1E26300E1E2616C08F
:102D2800D9FF17C0DAFF1EC0DFFF1606D8A01706A6
:102D380018501910D8A4D2D7164A172A1200000E14
:102D48001A6E18AE06D0176C181ED8B0182A010EC5
:102D58001A6E16AE06D0156C161ED8B0162A010EBD
:102D68001A1A000E1C6E000E1B6E17501810D8B4DD
:102D78001CD0010E196E04D0D89017361836192AAF
:102D880018AEFAD7D8901B361C361750155C185059
:102D98001658D8A005D01750155E1850165A1B8023
:102DA800D89018321732192EEDD71A50D8B404D04B
:102DB8001B6C1C1ED8B01C2A1BC015F01CC016F0BA
:102DC8001200000E176E000E186E000E196E000E1F
:102DD8001A6E1350141015101610D8B42AD0010EFC
:102DE8001B6E06D0D89013361436153616361B2AA5
:102DF80016AEF8D7D8901736183619361A36135033
:102E08000F5C145010581550115816501258D8A06D
:102E180009D013500F5E1450105A1550115A1650FD
:102E2800125A1780D89016321532143213321B2ECC
:102E3800E1D717C00FF018C010F019C011F01AC070
:102E480012F01200000E146E10AE06D00F6C101E99
:102E5800D8B0102A010E146E12AE04D0116C121ED6
:102E6800D8B0122A11501210D8B418D0010E136E0F
:102E780004D0D89011361236132A12AEFAD7115050
:102E88000F5C12501058D8A004D011500F5E125089
:102E9800105AD89012321132132EF1D71450D8B4D8
:102EA80004D00F6C101ED8B0102A0FC00FF010C03D
:102EB80010F012001F6E81821F44010B1B6E1F440D
:102EC800E846030B010B1C6E1F38E842070B010B89
:102ED8001D6E1F380F0B010B1E6E1CC017F01DC096
:102EE80018F01EC019F01B50C2EC18F01F38E84645
:102EF8001F0B010B1B6E1F40E8423F0B010B1C6EA2
:102F0800D8901F30010B1D6E1F50010B1E6E1CC088
:102F180017F01DC018F01EC019F01B50C2EC18F0B5
:102F2800819212001350141015101610D8B424D022
:102F3800010E176E06D0D89013361436153616368D
:102F4800172A16AEF8D713500F5C145010581550A6
:102F5800115816501258D8A008D013500F5E1450AC
:102F6800105A1550115A1650125AD8901632153256
:102F780014321332172EE7D70FC00FF010C010F01D
:102F880011C011F012C012F01200000E896EF70E77
:102F9800926E000E8A6E000E936E000E8B6E946811
:102FA800100E2AEC14F0B40E206E7F0E216EF1EC98
:102FB80018F0010E166EF40E156EA9EC18F02DEC33
:102FC80019F0000EC26E0C0EC16EBE0EC06EC29A13
:102FD800C298C296850ED56E0B0ED76EDC0ED66ED5
:102FE800F28EF294F28AC2801200000E146E000E65
:102FF800136E11501210D8B41CD0010E156E04D0E7
:10300800D89011361236152A12AEFAD7D890133640
:10301800143611500F5C12501058D8A005D011501A
:103028000F5E1250105A1380D89012321132152E9A
:10303800EDD713C00FF014C010F01200000E0001FD
:10304800781B000E791B000E7A1B800E7B1B74C048
:1030580060F075C061F076C062F077C063F078C048
:1030680064F079C065F07AC066F07BC067F02DEC3B
:1030780004F060C074F061C075F062C076F063C09F
:1030880077F0120000EEA7F0340EEE6AE806FDE1D4
:103098004C6A4B6A4A6A496A2E0EF66E330EF76E10
:1030A800000EF86E00EE4DF010EE04F00900F5CFBA
:1030B800EEFFE550E150FAE151905192000EF86EA2
:1030C800000198EF15F01FC025F020C026F022AEB1
:1030D8000CD01FC0D9FF20C0DAFF2D0EDF6E1F4AAB
:1030E800202A216C221ED8B0222A1FC016F020C028
:1030F80017F021C018F022C019F023C01AF024C01C
:103108001BF051EC16F0120011501210D8B418D060
:10311800010E136E04D0D89011361236132A12AE4F
:10312800FAD711500F5C12501058D8A004D0115083
:103138000F5E1250105AD89012321132132EF1D756
:103148000FC00FF010C010F0120050C00FF0106A3E
:1031580015C011F016C012F040EC19F00FC043F082
:1031680010C044F006D0500EE82EFED74306D8A073
:10317800440643504410D8B41200F5D71A6E19B05B
:1031880002D0819801D0818818B002D0819A01D0EC
:10319800818A17B002D0819C01D0818C1AB002D0EC
:1031A800819E01D0818E84EC19F012000F5010100E
:1031B80011101210D8B408D0000E0F1A000E101AF1
:1031C800000E111A800E121A0FC00FF010C010F066
:1031D80011C011F012C012F012000AD020C0F6FF80
:1031E80021C0F7FF0800F5505EEC17F0204A212AAD
:1031F80020C0F6FF21C0F7FF0800F5500009D8B439
:103208001200ECD71C6E000E176E000E186E000E22
:10321800196E000EC2EC18F0010E176E1CC018F0E3
:103228001BC019F0010EC2EC18F01200000E176E48
:10323800000E186E000E196E000EC2EC18F0000E8B
:10324800176E010E186E000E196E000EC2EC18F003
:103258001200000E176E000E186E000E196E000E8A
:10326800C2EC18F0000E176E000E186E010E196EE3
:10327800000EC2EC18F012000F501102F3CF13F039
:10328800F4CF14F00F501202F3501426105011020C
:10329800F350142613C00FF014C010F0120009D018
:1032A80020C0D9FF21C0DAFFDF505EEC17F0204ABA
:1032B800212A20C0D9FF21C0DAFFDF50D8B412007C
:1032C800EFD7176E000E186E07D0030E166EE80EB5
:1032D800156EA9EC18F0182A1750185CD8B012000F
:1032E800F4D7116E000E106E3A0E116005D02F0E35
:1032F800116402D0010E106E10C00FF00F301200D2
:103308008186000E166E010E156EA9EC18F08196D6
:10331800000E166E010E156EA9EC18F012000F6E55
:0A3328000FC050F01200010509105B
:107EE000000000803FCDCCCC3D0AD7233C6F1283ED
:107EF0003A17B7D138ACC52737BD37863595BFD6C9
:107F00003377CC2B325F708930FFE6DB2E08E53CFF
:107F10001E6042A20D0000803F000020410000C80A
:107F20004200007A4400401C460050C347002474BD
:107F3000498096184B20BCBE4C286B6E4EF902153A
:107F400050EC78AD60CAF24971010000000A0000EF
:107F50000064000000E803000010270000A0860174
:107F60000040420F008096980000E1F50500CA9A93
:107F70003B4369636C6F2072696361726963612E50
:107F80002E00626174746572696120736361726945
:107F9000636100436172696361207465726D696E2B
:107FA00061746100706572206E756F766F20746504
:107FB00073742E0054455354455220424154544545
:107FC0005249450053636F6C6C656761726520624E
:107FD000617474004552524F524521210020493AA4
:107FE000252E33660074656D706F3A00563A252E63
:107FF000336600252E326600433A004168000000D7
:020000040020DA
:08000000FFFFFFFFFFFFFFFF00
:020000040030CA
:0E000000000C1F1EFF8181FF0FC00FE00F409C
:00000001FF
