:0400000039EF05F0DF
:10080000004F4B204F4B204F4B204F4B204F4B2046
:100810002100696E697A69616C697A7A617A696FB7
:100820006E6500000F6E0F50A5EC05F08A928A9657
:100830008A94000E086E640E076EF3EC04F0000E4E
:10084000096E010E0A6E010E0B6E000E0CEC05F027
:10085000000E086E640E076EF3EC04F0000E096ED5
:10086000010E0A6E010E0B6E000E0CEC05F0000E70
:10087000086E0A0E076EF3EC04F0000E096E010E0E
:100880000A6E010E0B6E000E0CEC05F0000E096EE8
:10089000010E0A6E000E0B6E000E0CEC05F0000E41
:1008A000096E010E0A6E000E0B6E000E0CEC05F0C8
:1008B000000E096E000E0A6E000E0B6E010E0CEC9F
:1008C00005F0000E096E000E0A6E000E0B6E000E93
:1008D0000CEC05F0000E096E000E0A6E000E0B6E99
:1008E000010E0CEC05F0000E096E000E0A6E000EF3
:1008F0000B6E000E0CEC05F0000E096E000E0A6E79
:10090000010E0B6E000E0CEC05F0000E096E000ED1
:100910000A6E000E0B6E000E0CEC05F0010E096E57
:10092000010E0A6E000E0B6E000E0CEC05F061EC71
:1009300005F0000E0D6E000E4DEC05F01200116E6C
:100940008A821144010B0D6E1144E846030B010B22
:100950000E6E1138E842070B010B0F6E11380F0BAA
:10096000010B106E0EC009F00FC00AF010C00BF0A2
:100970000D500CEC05F01138E8461F0B010B0D6E05
:100980001140E8423F0B010B0E6ED8901130010B65
:100990000F6E1150010B106E0EC009F00FC00AF05F
:1009A00010C00BF00D500CEC05F08A921200000EF6
:1009B000896E9268000E8A6E000E936E000E8B6E2A
:1009C0009468100E12EC04F0120E126E080E136EE4
:1009D00024EC05F0030E086EE80E076EF3EC04F04D
:1009E00061EC05F012001CC001F0026A07C003F0C0
:1009F00008C004F074EC05F001C01AF002C01BF04E
:100A000006D0500EE82EFED71A06D8A01B061A50A4
:100A10001B10D8B41200F5D70C6E0BB002D08A9818
:100A200001D08A880AB002D08A9A01D08A8A09B095
:100A300002D08A9C01D08A8C0CB002D08A9E01D050
:100A40008A8E96EC05F012000AD012C0F6FF13C091
:100A5000F7FF0800F5509FEC04F0124A132A12C069
:100A6000F6FF13C0F7FF0800F5500009D8B41200D4
:100A7000ECD7196A186A176A166A156A146A520E50
:100A8000F66E0B0EF76E000EF86E0900F5CF1CF037
:100A9000000EF86E000187EF05F00E6E000E096E75
:100AA000000E0A6E000E0B6E000E0CEC05F0010E2F
:100AB000096E0EC00AF00DC00BF0010E0CEC05F033
:100AC0001200000E096E000E0A6E000E0B6E000E74
:100AD0000CEC05F0000E096E000E0A6E010E0B6E96
:100AE000000E0CEC05F0120001500302F3CF05F0EC
:100AF000F4CF06F001500402F35006260250030220
:100B0000F350062605C001F006C002F01200D7EC33
:100B100004F0010E126E080E136E24EC05F0030EA5
:100B2000086EE80E076EF3EC04F0F3D78A86000E29
:100B3000086E010E076EF3EC04F08A96000E086E44
:100B4000010E076EF3EC04F01200016E01C01CF000
:030B50001200147C
:020000040020DA
:08000000FFFFFFFFFFFFFFFF00
:020000040030CA
:0E000000000C1F1EFF8381FF0FC00FE00F409A
:00000001FF
