:0400000031EF16F0D6
:10080000000000803FCDCCCC3D0AD7233C6F128343
:100810003A17B7D138ACC52737BD37863595BFD61F
:100820003377CC2B325F708930FFE6DB2E08E53C56
:100830001E6042A20D0000803F000020410000C861
:100840004200007A4400401C460050C34700247414
:10085000498096184B20BCBE4C286B6E4EF9021591
:1008600050EC78AD60CAF24971010000000A000046
:100870000064000000E803000010270000A08601CB
:100880000040420F008096980000E1F50500CA9AEA
:100890003B4369636C6F2072696361726963612EA7
:1008A0002E00696E697A69616C697A7A617A696F1A
:1008B0006E6500563A20252E32660000550E000166
:1008C000646F000E0001656FEDD3250E00017819ED
:1008D000D8B407D051C0D9FF52C0DAFF78C0DFFFCB
:1008E000DFD3000E0001676F000E666F53C0F6FF86
:1008F00054C0F7FF0800F5502E0AD8A432D00001EA
:10090000678D534A542A000E0001736F000E726FF8
:100910001DD072C001F073C002F0000E046E0A0E0A
:10092000036E1FEC17F053C0F6FF54C0F7FF08002A
:10093000F5500126000E0222D00E01240001726F34
:10094000FF0E02200001736F534A542A53C0F6FF72
:1009500054C0F7FF0800F55044EC17F0D8A00CD0B5
:10096000D8D7000E0001736F000E726F0001678907
:1009700003D00001678512D053C0F6FF54C0F7FFC3
:10098000534A542A0800F5CF78F000017851000A44
:10099000D8B495D3660AD8B4ECD784D3070E000137
:1009A0006715D8B430D3000167A905D0000E000147
:1009B000736F060E726F64C0D9FF65C0DAFFDECFB9
:1009C00074F0DECF75F0DECF76F0DECF77F0040E78
:1009D00000016427000E6523000177AF15D074C0B5
:1009E00001F075C002F076C003F077C004F0CCECE3
:1009F00016F001C074F002C075F003C076F004C0B8
:100A000077F0030E00016613000E00016D6F000EFB
:100A10006C6F000174510001751100017611000125
:100A20007711D8B488D0000176357735820F000170
:100A30006C6F00016D6BFF0E6D2300016C07D8A079
:100A40006D076CC001F06DC002F0000E046E030E65
:100A5000036E1FEC17F001C06CF002C06DF06CC0AB
:100A600007F06DC008F0000E0A6E0A0E096EB8ECB1
:100A700014F007C06CF008C06DF000016DAF04D039
:100A800000016C07D8A06D0700016C51000866ECEE
:100A900008F028C06EF029C06FF02AC070F02BC09B
:100AA00071F06EC00FF06FC010F070C011F071C027
:100AB00012F074C013F075C014F076C015F077C052
:100AC00016F072EC0AF00FC06EF010C06FF011C09B
:100AD00070F012C071F06EC001F06FC002F070C013
:100AE00003F071C004F0000E056E000E066E800E5D
:100AF000076E3F0E086ED1EC12F0D8B005D00001A1
:100B00006C07D8A06D0717D06EC001F06FC002F05F
:100B100070C003F071C004F0000E056E000E066E8A
:100B2000200E076E410E086ED1EC12F0D8A003D053
:100B300000016C4B6D2B000173BF08D00001735195
:100B400023E10D0E0001725DD8B01ED074C035F0E7
:100B500075C036F076C037F077C038F000017251BA
:100B600012EC0FF028C039F029C03AF02AC03BF04F
:100B70002BC03CF01AEC0CF035C074F036C075F0A8
:100B800037C076F038C077F000016DBF08D00001A3
:100B90006D512AE10A0E00016C5DD8B025D000012C
:100BA0007451000175110001761100017711D8B45C
:100BB00067D074C031F075C032F076C033F077C0C2
:100BC00034F0EEEC13F03150321033103410D8A45E
:100BD00057D000016DBF54D000016D5105E1020EE8
:100BE00000016C5DD8A04CD06EC001F06FC002F067
:100BF00070C003F071C004F05F0E056E700E066EDB
:100C0000890E076E400E086ED1EC12F0D8B003D0FA
:100C10000001F70E02D00001F80E6C27FF0E6D23C5
:100C200000016C5166EC08F028C06EF029C06FF02E
:100C30002AC070F02BC071F074C001F075C002F0D2
:100C400076C003F077C004F06EC005F06FC006F008
:100C500070C007F071C008F03DEC12F001C068F000
:100C600002C069F003C06AF004C06BF0000E00011E
:100C7000746F000E756F000E766F000E776F3CD0AC
:100C800074C031F075C032F076C033F077C034F004
:100C9000EEEC13F031C068F032C069F033C06AF096
:100CA00034C06BF074C049F075C04AF076C04BF0A8
:100CB00077C04CF068C00FF069C010F06AC011F046
:100CC0006BC012F0000EFCEC10F00FC04DF010C025
:100CD0004EF011C04FF012C050F056EC16F049C063
:100CE00074F04AC075F04BC076F04CC077F0000E3F
:100CF00000016D6F000E6C6F010E0001786F0A0E1F
:100D000000017819D8B41ED000017851040D690E85
:100D1000F324F66E080EF420F76E0900F55000017A
:100D2000685D0900F550000169590900F55000019E
:100D30006A590900F55000016B59D8A003D0000191
:100D4000782BDDD7030E00016615596E000E0001E9
:100D500067155A6E59505A10D8B453D051C0D9FFA4
:100D600052C0DAFF2D0E4BD0514A522A4AD068C0E9
:100D700001F069C002F06AC003F06BC004F000012A
:100D80007851040D690EF324F66E080EF420F76E08
:100D90000900F5CF05F00900F5CF06F00900F5CF01
:100DA00007F00A00F5CF08F0FAEC14F001C06EF07D
:100DB00002C06FF003C070F004C071F06EC001F0AB
:100DC0006FC002F070C003F071C004F00A0E056E2F
:100DD000000E066E000E076E000E086EABEC15F0EE
:100DE00001C06EF002C06FF003C070F004C071F07B
:100DF00000016E51300F51C0D9FF52C0DAFFDF6ED3
:100E0000B3D70001780700017829D8B40DD0AFD747
:100E100051C0D9FF52C0DAFF300EDF6E514A522A5C
:100E200000016C07D8A06D0700016DBF07D000015D
:100E30006D51EEE100016C05D8B0EAD7000173BF37
:100E40000CD00001735105E1090E0001725DD8A0BC
:100E500004D0080E0001786F02D072C078F0000153
:100E600078510001725F000E000178BFFF0E000193
:100E7000735B000178510001D8B408D051C0D9FF8C
:100E800052C0DAFF2E0EDF6E514A522A000178510D
:100E900066EC08F028C060F029C061F02AC062F05A
:100EA0002BC063F074C013F075C014F076C015F059
:100EB00077C016F060C00FF061C010F062C011F092
:100EC00063C012F072EC0AF00FC031F010C032F0C3
:100ED00011C033F012C034F0EEEC13F031C068F002
:100EE00032C069F033C06AF034C06BF072D068C0B1
:100EF00001F069C002F06AC003F06BC004F00001A9
:100F00007851040D690EF324F66E080EF420F76E86
:100F10000900F5CF05F00900F5CF06F00900F5CF7F
:100F200007F00A00F5CF08F0FAEC14F001C06EF0FB
:100F300002C06FF003C070F004C071F06EC001F029
:100F40006FC002F070C003F071C004F00A0E056EAD
:100F5000000E066E000E076E000E086EABEC15F06C
:100F600001C06EF002C06FF003C070F004C071F0F9
:100F700000016E51300F51C0D9FF52C0DAFFDF6E51
:100F8000514A522A68C001F069C002F06AC003F0F9
:100F90006BC004F000017851040D690EF324F66E65
:100FA000080EF420F76E0900F5CF05F00900F5CF23
:100FB00006F00900F5CF07F00A00F5CF08F0ABEC1A
:100FC00015F001C068F002C069F003C06AF004C007
:100FD0006BF00001780700017829D8B40DD087D7CD
:100FE00051C0D9FF52C0DAFF300EDF6E514A522A8B
:100FF00000017207D8A0730700017251000173113C
:10100000D8B450D0EDD70001725100017311D8A4AB
:101010000DD0000168510001691100016A11000141
:101020006B11D8A403D00001724B732B800E00010A
:1010300078BF7F0E596E000172510001785D00018A
:101040007351800A5958D8B003D072C078F016D0C6
:1010500000017351800A596E000178510001725DE0
:10106000800E000178BF7F0E5958D8B007D000011C
:1010700078510001726F736B72BF7307030E00012A
:101080006615596E000E000167155A6E59505A10B8
:10109000D8B408D051C0D9FF52C0DAFF2D0EDF6E90
:1010A000514A522A53C0F6FF54C0F7FF534A542AFC
:1010B0000800F5CF78F000017851D8A406D451C0CB
:1010C000D9FF52C0DAFF000EDF6E1200306E30AE74
:1010D00005D1306C3050800A120FD8A098D0000E85
:1010E0000A6E0A0E096E000E046E640E036E305016
:1010F000016E026A01BE02063BEC15F001C007F06A
:1011000002C008F0B8EC14F0D89007360836D89032
:1011100007360836240E0726000E0822010E072483
:10112000F66E080E0820F76E0900F5CF13F00900DF
:10113000F5CF14F00900F5CF15F00A00F5CF16F041
:10114000000E0A6E640E096E3050076E086A07BE04
:101150000806B8EC14F0D89007360836D890073651
:101160000836480E0726000E0822010E0724F66EE8
:10117000080E0820F76E0900F5CF0FF00900F5CF33
:1011800010F00900F5CF11F00A00F5CF12F072EC63
:101190000AF00FC02CF010C02DF011C02EF012C0BC
:1011A0002FF02CC00FF02DC010F02EC011F02FC06A
:1011B00012F0000E046E0A0E036E3050016E026AC9
:1011C00001BE02063BEC15F0D89001360236D890ED
:1011D00001360236010E0124F66E080E0220F76E6B
:1011E0000900F5CF13F00900F5CF14F00900F5CF91
:1011F00015F00A00F5CF16F072EC0AF00FC028F0D7
:1012000010C029F011C02AF012C02BF0120030508B
:10121000800A750FD8A04DD0000E0A6E0A0E096E16
:101220003050076E086A07BE0806B8EC14F0D89074
:1012300007360836D89007360836240E0726000EE3
:101240000822010E0724F66E080E0820F76E09002A
:10125000F5CF0FF00900F5CF10F00900F5CF11F030
:101260000A00F5CF12F0000E046E0A0E036E305025
:10127000016E026A01BE02063BEC15F0D890013601
:101280000236D89001360236010E0124F66E080EA1
:101290000220F76E0900F5CF13F00900F5CF14F026
:1012A0000900F5CF15F00A00F5CF16F072EC0AF040
:1012B000A5D73050040D010EF324F66E080EF4206D
:1012C000F76E0900F5CF28F00900F5CF29F00900E5
:1012D000F5CF2AF00A00F5CF2BF012003050800A2B
:1012E000120FD8A098D0000E0A6E0A0E096E000EDA
:1012F000046E640E036E3050016E026A01BE020677
:101300003BEC15F001C007F002C008F0B8EC14F097
:10131000D89007360836D89007360836240E0726A8
:10132000000E0822350E0724F66E080E0820F76E10
:101330000900F5CF13F00900F5CF14F00900F5CF3F
:1013400015F00A00F5CF16F0000E0A6E640E096E55
:101350003050076E086A07BE0806B8EC14F0D89043
:1013600007360836D89007360836480E0726000E8E
:101370000822350E0724F66E080E0820F76E0900C5
:10138000F5CF0FF00900F5CF10F00900F5CF11F0FF
:101390000A00F5CF12F072EC0AF00FC02CF010C06A
:1013A0002DF011C02EF012C02FF02CC00FF02DC068
:1013B00010F02EC011F02FC012F0000E046E0A0EB5
:1013C000036E3050016E026A01BE02063BEC15F05E
:1013D000D89001360236D89001360236350E0124F7
:1013E000F66E080E0220F76E0900F5CF13F0090023
:1013F000F5CF14F00900F5CF15F00A00F5CF16F07F
:1014000072EC0AF00FC028F010C029F011C02AF0C9
:1014100012C02BF012003050800A750FD8A04DD0AA
:10142000000E0A6E0A0E096E3050076E086A07BE7B
:101430000806B8EC14F0D89007360836D89007366E
:101440000836240E0726000E0822350E0724F66EF5
:10145000080E0820F76E0900F5CF0FF00900F5CF50
:1014600010F00900F5CF11F00A00F5CF12F0000ED0
:10147000046E0A0E036E3050016E026A01BE02064F
:101480003BEC15F0D89001360236D8900136023682
:10149000350E0124F66E080E0220F76E0900F5CF16
:1014A00013F00900F5CF14F00900F5CF15F00A008C
:1014B000F5CF16F072EC0AF0A5D73050040D350EBA
:1014C000F324F66E080EF420F76E0900F5CF28F02D
:1014D0000900F5CF29F00900F5CF2AF00A00F5CF71
:1014E0002BF012001250800B1B6E12501224216E32
:1014F00011BE21802150D8B40DD02128D8A408D005
:10150000000E0F6E000E106E000E116E000E126EA9
:10151000118E08D0000E0F6E000E106E000E116EB0
:10152000000E126E1650800B1B1A16501624206ED9
:1015300015BE20802050D8B40DD02028D8A408D0C3
:10154000000E136E000E146E000E156E000E166E59
:10155000158E08D0000E136E000E146E000E156E60
:10156000000E166E2050D8B403D02150D8A409D054
:10157000000E0F6E000E106E000E116E000E126E39
:10158000120015500F02F3CF26F0F4CF27F02650AB
:101590001C6E1D6A1E6A1F6A2750226E236A246A07
:1015A000256A14501002F3CF26F0F4CF27F026500E
:1015B0001C26000E1D221E221F2227502226000E4E
:1015C00023222422252213501102F3CF26F0F4CF38
:1015D00027F026501C26000E1D221E221F222750F7
:1015E0002226000E2322242225221EC01FF01DC009
:1015F0001EF01CC01DF01C6A13501002F3CF26F021
:10160000F4CF27F026501C2627501D22000E1E2244
:10161000000E1F2214500F02F3CF26F0F4CF27F054
:1016200026501C2627501D22000E1E22000E1F22AF
:101630001EC01FF01DC01EF01CC01DF01C6A135000
:101640000F02F3CF26F0F4CF27F026501C262750A8
:101650001D22000E1E22000E1F2215501002F3CF75
:1016600026F0F4CF27F02650222627502322000E02
:101670002422000E252214501102F3CF26F0F4CFBD
:1016800027F02650222627502322000E2422000E67
:10169000252215501102F3CF26F0F4CF27F0265063
:1016A000176E2750186E196A1A6A19C01AF018C0F6
:1016B00019F017C018F0176A175022261850232265
:1016C000195024221A5025221CC017F01DC018F0F2
:1016D0001EC019F01FC01AF0190E05D0D8901A328A
:1016E000193218321732E82EF9D71750222618501F
:1016F0002322195024221A5025221EC01FF01DC07B
:101700001EF01CC01DF01C6A205021C017F0186A82
:101710001726000E1822820E1724266EFF0E1820A0
:10172000276E0FD0D89022362336243625361FBE9A
:101730002280D8901C361D361E361F362606D8A0AD
:10174000270624AEEFD7000E206E1FAE16D0FF0E78
:101750001C14176EFF0E1D14186EFF0E1E14196E4A
:101760007F0E1F141A6E1750181019101A10D8A4D3
:1017700002D022A002D0010E206E2050D8B41FD07B
:10178000010E2226000E23222422252225A017D076
:1017900022C017F023C018F024C019F025C01AF099
:1017A0001A341A3219321832173217C022F018C000
:1017B00023F019C024F01AC025F0264A272A27BE94
:1017C0000DD0275003E12628D8A008D0000E226EA5
:1017D000000E236E800E246E7F0E20D027BE05D013
:1017E00027500EE12604D8B00BD0000E226E000E5A
:1017F000236E000E246E000E256E000E1B6E0FD0A1
:1018000026C021F0FF0E2216FF0E23167F0E24168F
:10181000000E251621B0248ED8902130256E1B5045
:10182000251222C00FF023C010F024C011F025C0F3
:1018300012F012003850800B456E38503824476E35
:1018400037BE47804750D8B40DD04728D8A408D019
:10185000000E356E000E366E000E376E000E386EBE
:10186000378E06D0000E356E000E366E000E376EC7
:10187000000E386E3C50800B466E45504618D8A47A
:10188000458C3C503C24466E3BBE46804650D8B406
:101890000DD04628D8A408D0000E396E000E3A6E3E
:1018A000000E3B6E000E3C6E3B8E06D0000E396E75
:1018B000000E3A6E000E3B6E000E3C6E4750465CCA
:1018C000D8B022D045AC02D0800E451A47C048F0AF
:1018D00046C047F048C046F035C048F039C035F042
:1018E00048C039F036C048F03AC036F048C03AF047
:1018F00037C048F03BC037F048C03BF038C048F034
:101900003CC038F048C03CF0000E486E47503D6E79
:101910003E6A3D1E3E1E3D4A3E2A46503F6E406A8C
:101920003D503F263E50402240BE2CD0405004E166
:101930001A0E3F5CD8A026D035503610371038101C
:10194000D8B402D0010E01D0000E486E000E356EE4
:10195000000E366E000E376E000E386E46C047F031
:1019600015D048A005D0D89048300109486E02D063
:10197000D890483235B0488E383438323732363223
:101980003532472A4650475CD8A0EBD745BC29D012
:101990004750D8A409D0000E356E000E366E000EEA
:1019A000376E000E386E1200395035263A50362206
:1019B0003B5037223C50382238A083D048A006D074
:1019C000D890483248500109486E02D0D890483229
:1019D00035B0488E38343832373236323532472ACD
:1019E00070D03950355C3A5036583B5037583850E3
:1019F000800A3D6E3C50800A3D58D8B036D035C084
:101A00003DF036C03EF037C03FF038C040F03D1EDC
:101A10003E1E3F1E401E3D2A000E3E223F22402217
:101A200039503D24416E3A503E20426E3B503F209B
:101A3000436E3C504020446EFF0E4124356EFF0E35
:101A40004220366EFF0E4320376EFF0E4420386E64
:101A5000800E451A486C4850D8A40FD0010E352688
:101A6000000E36223722382208D03950355E3A50DF
:101A7000365A3B50375A3C50385A3550361037108A
:101A80003810D8A41CD04850D8A419D0000E356EF8
:101A9000000E366E000E376E000E386E1200D890B3
:101AA000353636363736383648BE358048A002D00F
:101AB000D88001D0D89048364750D8A4470637AED2
:101AC000EED7000E466E48AE0AD048C03DF07F0EFD
:101AD0003D16D8A402D035A002D0010E466E465065
:101AE000D8B420D0010E3526000E362237223822F7
:101AF00038A018D035C03DF036C03EF037C03FF0BA
:101B000038C040F0403440323F323E323D323DC07A
:101B100035F03EC036F03FC037F040C038F04728BF
:101B2000D8A4472A4728D8B403D04750D8A40DD00A
:101B3000000E356E000E366E000E376E000E386EDB
:101B40004750D8A402D0000E456E47A002D0378E71
:101B500001D0379ED8904730386E45BE388E35C09C
:101B600035F036C036F037C037F038C038F01200E4
:101B70000450800B0D6E04500424186E03BE1880B0
:101B80001850D8B40DD01828D8A408D0000E016E73
:101B9000000E026E000E036E000E046E038E06D061
:101BA000000E016E000E026E000E036E000E046E3B
:101BB0000850800B0D1A08500824196E07BE1980B2
:101BC0001950D8B40DD01928D8A408D0000E056E2D
:101BD000000E066E000E076E000E086E078E06D011
:101BE000000E056E000E066E000E076E000E086EEB
:101BF0000550061007100810D8A415D0000E016E6D
:101C0000000E026E000E036E000E046E800E0312B4
:101C10007F0E041201C001F002C002F003C003F005
:101C200004C004F012001850D8A411D0000E016EA8
:101C3000000E026E000E036E000E046E01C001F075
:101C400002C002F003C003F004C004F012001950F7
:101C5000096E0A6A091E0A1E094A0A2A18500B6EE2
:101C60000C6A09500B260A500C227F0E0B24126EB0
:101C7000000E0C20136E01C00EF002C00FF003C066
:101C800010F004C011F0000E016E000E026E000E86
:101C9000036E000E046E000E146E000E156E000E24
:101CA000166E000E176E000E196E28D01950D8B49B
:101CB00011D0D8900E360F3610361136D890013626
:101CC00002360336043617BE0180D8901436153616
:101CD0001636173605500E5C06500F580750105830
:101CE00008501158D8A009D0178C05500E5E065028
:101CF0000F5A0750105A0850115A192A190E196410
:101D0000D5D70E500F1010101110D8B411D0148068
:101D10000FD0D890013602360336043617BE018044
:101D2000D89014361536163617361206D8A0130674
:101D300003AEEFD7000E196E17AE16D0FF0E1414B7
:101D4000096EFF0E15140A6EFF0E16140B6E7F0E31
:101D500017140C6E09500A100B100C10D8A402D0E6
:101D600001A002D0010E196E1950D8B41FD0010E77
:101D70000126000E02220322042204A017D001C073
:101D800009F002C00AF003C00BF004C00CF00C34E0
:101D90000C320B320A32093209C001F00AC002F0DB
:101DA0000BC003F00CC004F0124A132A13BE10D06B
:101DB000135003E11228D8A00BD0000E136E126846
:101DC000000E016E000E026E000E036E000E046E19
:101DD00013BE05D0135011E11204D8B00ED0000E7E
:101DE000136E000E126E000E016E000E026E000EDB
:101DF000036E000E046E000E0D6E12C018F018A0D7
:101E000002D0038E01D0039ED8901830046E0D507E
:101E1000041201C001F002C002F003C003F004C0CC
:101E200004F01200346E6D0E3464ACD0000E0A6EF5
:101E30000A0E096E000E046E640E036E34C001F0CB
:101E4000026A3BEC15F001C007F002C008F0B8ECE4
:101E500014F0D89007360836D89007360836240E86
:101E60000726000E0822010E0724F66E080E082031
:101E7000F76E0900F5CF13F00900F5CF14F0090053
:101E8000F5CF15F00A00F5CF16F0000E0A6E640EBD
:101E9000096E34C007F0086AB8EC14F0D890073621
:101EA0000836D89007360836480E0726000E082256
:101EB000010E0724F66E080E0820F76E0900F5CF14
:101EC0000FF00900F5CF10F00900F5CF11F00A006E
:101ED000F5CF12F072EC0AF00FC030F010C031F004
:101EE00011C032F012C033F0000E046E0A0E036E01
:101EF00034C001F0026A3BEC15F0D890013602368E
:101F0000D89001360236010E0124F66E080E02202A
:101F1000F76E0900F5CF13F00900F5CF14F00900B2
:101F2000F5CF15F00A00F5CF16F030C00FF031C034
:101F300010F032C011F033C012F072EC0AF00FC092
:101F40002CF010C02DF011C02EF012C02FF02CC0BC
:101F50000FF02DC010F02EC011F02FC012F0000EA7
:101F6000136E000E146E000E156E3F0E166E72ECA0
:101F70000AF00FC028F010C029F011C02AF012C0DA
:101F80002BF012000A0E346463D0000E046E0A0EA9
:101F9000036E34C001F0026A3BEC15F0D8900136B4
:101FA0000236D89001360236010E0124F66E080E74
:101FB0000220F76E0900F5CF13F00900F5CF14F0F9
:101FC0000900F5CF15F00A00F5CF16F0000E0A6EE5
:101FD0000A0E096E34C007F0086AB8EC14F0D89005
:101FE00007360836D89007360836240E0726000E26
:101FF0000822010E0724F66E080E0820F76E09006D
:10200000F5CF0FF00900F5CF10F00900F5CF11F072
:102010000A00F5CF12F072EC0AF00FC030F010C0D9
:1020200031F011C032F012C033F030C00FF031C0C7
:1020300010F032C011F033C012F0000E136E000E1B
:10204000146E000E156E3F0E166E72EC0AF091D7EC
:102050003450040D010EF324F66E080EF420F76ED2
:102060000900F5CF0FF00900F5CF10F00900F5CF0A
:1020700011F00A00F5CF12F0000E136E000E146E70
:10208000000E156E3F0E166E72EC0AF00FC028F0AF
:1020900010C029F011C02AF012C02BF01200000E5F
:1020A0002A6E020E2A6401D044D02A50010D930EEC
:1020B000F324D96E000EF420DA6EDF50C26EC280B7
:1020C000C282C2B2FED7C450286E296A2A50020DBD
:1020D0005D0EF324D96E000EF420DA6E28C0DEFF08
:1020E00029C0DDFF2A50020D5D0EF324D96E000ECB
:1020F000F420DA6EDECF28F0DDCF29F028C029F0F9
:10210000286AC3502812000E29122A50020D5D0EB3
:10211000F324D96E000EF420DA6E28C0DEFF29C049
:10212000DDFF000E086E050E076E9BEC16F02A2AE6
:10213000B8D75DC028F05EC029F0281E291E284AA5
:10214000292A5F5028266050292228C00FF029C074
:1021500010F0000E10BEFF0E116E126E010EFCECA0
:1021600010F00FC07FF010C080F011C081F012C0DD
:1021700082F0040E0A6E000E096E61C001F062C0AA
:1021800002F0000E046E050E036E1FEC17F001C086
:1021900007F002C008F0B8EC14F007C00FF008C058
:1021A00010F0000E10BEFF0E116E126E010EFCEC50
:1021B00010F00FC083F010C084F011C085F012C081
:1021C00086F083C00FF084C010F085C011F086C087
:1021D00012F08FC013F090C014F091C015F092C0AF
:1021E00016F072EC0AF00FC083F010C084F011C03A
:1021F00085F012C086F01200176E1750D8A412AEE8
:102200001AD00FC013F010C014F011C015F012C096
:1022100016F0131E141E151E161E132A000E14226D
:102220001522162213C019F014C01AF015C01BF0A5
:1022300016C01CF008D00FC019F010C01AF011C061
:102240001BF012C01CF00F50101011101210D8A467
:1022500009D0000E0F6E000E106E000E116E000EF3
:10226000126E1200960E186E06D0182AD8901C32E4
:102270001B321A321932000E1914136E000E1A1482
:10228000146E000E1B14156EFE0E1C14166E1350E9
:10229000141015101610D8B40DD0E7D7182A010E57
:1022A0001926000E1A221B221C22D8901C321B3227
:1022B0001A321932000E1914136E000E1A14146E0D
:1022C000000E1B14156EFF0E1C14166E1350141006
:1022D00015101610D8B407D0E1D71806D8901936C3
:1022E0001A361B361C361BBE03D0020E1860F5D7FB
:1022F00018B008D0FF0E1916FF0E1A167F0E1B1607
:10230000FF0E1C16D890183218C013F0146A156A04
:10231000166A13C016F0156A146A136A135019125C
:1023200014501A1215501B1216501C121750D8A414
:1023300012AE01D01C8E19C00FF01AC010F01BC0D5
:1023400011F01CC012F0120003C009F00A6A0B6AF7
:102350000234093601E30A800950116E1150D8A4E5
:1023600009D0000E016E000E026E000E036E000E0C
:10237000046E120007C009F00A6A0B6A06340936B7
:1023800001E30A800950106E1050D8A409D0000E45
:10239000016E000E026E000E036E000E046E12003F
:1023A000028EFF0E0116FF0E0216000E0316068E99
:1023B000FF0E0516FF0E0616000E0716000E0C6E19
:1023C000000E0D6E000E0E6E000E0F6E7F0E115E73
:1023D0001050980F115E180E106ED8900C360D36F6
:1023E0000E360F360550015C065002580750035850
:1023F000D8A007D00550015E0650025A0750035A74
:102400000C80D890013602360336102EE6D711AE76
:1024100016D01150800A970FD8B009D0000E016E67
:10242000000E026E000E036E000E046E1200D890B5
:102430000F320E320D320C32113EF9D715D0170E75
:1024400011640FD0000E016E000E026E000E036EBE
:10245000000E046E1200D8900C360D360E360F3674
:1024600011061150D8A4F7D70CC001F00DC002F02E
:102470000EC003F00FC004F01200033404340E6EDB
:102480000E50D8A409D0000E016E000E026E000E90
:10249000036E000E046E1200073408340D6E0D50EA
:1024A000D8A409D0000E016E000E026E000E036E5D
:1024B000000E046E1200038EFF0E0116FF0E0216B0
:1024C000FF0E0316000E0416078EFF0E0516FF0EF4
:1024D0000616FF0E0716000E0816000E096E000EF7
:1024E0000A6E000E0B6E000E0C6E7F0E0E5E0D500F
:1024F000A00F0E5E200E0D6ED89009360A360B36F0
:102500000C360550015C065002580750035808501D
:102510000458D8A009D00550015E0650025A075051
:10252000035A0850045A0980D890013602360336FF
:1025300004360D2EE1D70EAE16D00E50800A9F0F36
:10254000D8B009D0000E016E000E026E000E036EB0
:10255000000E046E1200D8900C320B320A3209328F
:102560000E3EF9D715D01F0E0E640FD0000E016E6F
:10257000000E026E000E036E000E046E1200D89064
:1025800009360A360B360C360E060E50D8A4F7D78D
:1025900009C001F00AC002F00BC003F00CC004F047
:1025A0001200000E0114096E000E02140A6E800E55
:1025B00003140B6E7F0E04140C6E09500A100B10DE
:1025C0000C10D8A408D0000E016E000E026E000E92
:1025D000036E000E046E000E0514096E000E061444
:1025E0000A6E800E07140B6E7F0E08140C6E0950D5
:1025F0000A100B100C10D8A408D0000E056E000EA7
:10260000066E000E076E000E086E04AE1DD001C0EF
:1026100009F002C00AF003C00BF004C00CF0091E60
:102620000A1E0B1E0C1E092A000E0A220B220C2267
:10263000000E0924016E000E0A20026E000E0B200F
:10264000036E800E0C20046E08AE1DD005C009F08C
:1026500006C00AF007C00BF008C00CF0091E0A1EE5
:102660000B1E0C1E092A000E0A220B220C22000E41
:102670000924056E000E0A20066E000E0B20076E60
:10268000800E0C20086E000E011A000E021A000EB9
:10269000031A800E041A000E051A000E061A000E08
:1026A000071A800E081A0550015C065002580750A0
:1026B000035808500458D8B002D0D8901200D880DF
:1026C00012000F6E0F5062EC17F08A948A968A926D
:1026D000000E086E640E076E9BEC16F0000E096E7D
:1026E000010E0A6E010E0B6E000EB4EC16F0000E19
:1026F000086E640E076E9BEC16F0000E096E010E5C
:102700000A6E010E0B6E000EB4EC16F0000E086E91
:102710000A0E076E9BEC16F0000E096E010E0A6E93
:10272000010E0B6E000EB4EC16F0000E096E010ED9
:102730000A6E000E0B6E000EB4EC16F0000E096E61
:10274000010E0A6E000E0B6E000EB4EC16F0000EB9
:10275000096E000E0A6E000E0B6E010EB4EC16F040
:10276000000E096E000E0A6E000E0B6E000EB4EC29
:1027700016F0000E096E000E0A6E000E0B6E010EB2
:10278000B4EC16F0000E096E000E0A6E000E0B6E11
:10279000000EB4EC16F0000E096E000E0A6E010E6B
:1027A0000B6E000EB4EC16F0000E096E000E0A6EF1
:1027B000000E0B6E000EB4EC16F0010E096E010E49
:1027C0000A6E000E0B6E000EB4EC16F00CEC17F057
:1027D000000E0D6E000EF8EC16F012003334343497
:1027E0003A6E3A50D8A409D0000E316E000E326E07
:1027F000000E336E000E346E120031C035F032C060
:1028000036F033C037F034C038F0200E05D0D89001
:102810003832373236323532E82EF9D73550396E04
:10282000338EFF0E3116FF0E3216FF0E3316000EDA
:102830003416960E3A5E3AAE16D03A50800A970F8A
:10284000D8B009D0000E316E000E326E000E336E1D
:10285000000E346E1200D8903432333232323132BC
:102860003A3EF9D715D01F0E3A640FD0000E316EE4
:10287000000E326E000E336E000E346E1200D890D1
:1028800031363236333634363A063A50D8A4F7D792
:102890003950D8B408D0341E331E321E316C000EAD
:1028A00032223322342231C031F032C032F033C010
:1028B00033F034C034F012000D6E4CD0000E096EAF
:1028C000000E0A6E000E0B6E010EB4EC16F0000E38
:1028D000096E000E0A6E000E0B6E000EB4EC16F0C0
:1028E0001200010E096E000E0A6E000E0B6E010E34
:1028F000B4EC16F0000E096E000E0A6E000E0B6EA0
:10290000000EB4EC16F01200000E096E000E0A6EF6
:10291000010E0B6E010EB4EC16F0010E096E000EE6
:102920000A6E000E0B6E000EB4EC16F01200010ED3
:10293000096E000E0A6E010E0B6E010EB4EC16F05D
:10294000010E096E000E0A6E000E0B6E000EB4EC46
:1029500016F012000D50010AD8B4B0D7030AD8B44B
:10296000C0D7010AD8B4D0D7070AD8A41200DFD73D
:10297000000E0C6E0AAE06D0096C0A1ED8B00A2AE8
:10298000010E0C6E08AE06D0076C081ED8B0082ADF
:10299000010E0C1A000E0E6E000E0D6E09500A107C
:1029A000D8B41CD0010E0B6E04D0D89009360A366C
:1029B0000B2A0AAEFAD7D8900D360E360950075CAE
:1029C0000A500858D8A005D00950075E0A50085A86
:1029D0000D80D8900A3209320B2EEDD70C50D8B4A6
:1029E00004D00D6C0E1ED8B00E2A0DC007F00EC01C
:1029F00008F01200000E096E000E0A6E000E0B6E3B
:102A0000000E0C6E0550061007100810D8B42AD01E
:102A1000010E0D6E06D0D8900536063607360836FC
:102A20000D2A08AEF8D7D89009360A360B360C3680
:102A30000550015C065002580750035808500458CE
:102A4000D8A009D00550015E0650025A0750035A1B
:102A50000850045A0980D8900832073206320532ED
:102A60000D2EE1D709C001F00AC002F00BC003F03F
:102A70000CC004F01200000E066E02AE06D0016C0F
:102A8000021ED8B0022A010E066E04AE04D0036CFA
:102A9000041ED8B0042A03500410D8B418D0010E74
:102AA000056E04D0D89003360436052A04AEFAD752
:102AB0000350015C04500258D8A004D00350015EBA
:102AC0000450025AD89004320332052EF1D7065032
:102AD000D8B404D0016C021ED8B0022A01C001F0A3
:102AE00002C002F01200116E8A841144010B0D6EB7
:102AF0001144E846030B010B0E6E1138E842070B38
:102B0000010B0F6E11380F0B010B106E0EC009F088
:102B10000FC00AF010C00BF00D50B4EC16F01138D5
:102B2000E8461F0B010B0D6E1140E8423F0B010BF5
:102B30000E6ED8901130010B0F6E1150010B106EFC
:102B40000EC009F00FC00AF010C00BF00D50B4EC2D
:102B500016F08A9412000550061007100810D8B419
:102B600024D0010E096E06D0D890053606360736F9
:102B70000836092A08AEF8D70550015C06500258FD
:102B80000750035808500458D8A008D00550015EDB
:102B90000650025A0750035A0850045AD890083277
:102BA000073206320532092EE7D701C001F002C014
:102BB00002F003C003F004C004F01200000E000194
:102BC0008F6FC80E906FAF0E916F460E926F000E12
:102BD000016E600E026EEA0E036E450E046E8FC02B
:102BE00005F090C006F091C007F092C008F0B8EC74
:102BF0000DF001C08FF002C090F003C091F004C04E
:102C000092F00AEC16F04FEC10F079EC16F04FEC65
:102C100010F0FBD7000E896EFB0E926E000E8A6ECE
:102C2000000E936E000E8B6EDF0E946E100E61EC34
:102C300013F0A20E126E080E136EE3EC16F0030EE4
:102C4000086EE80E076E9BEC16F00CEC17F0000E09
:102C5000C26E0B0EC16EB20EC06EC29AC298C29600
:102C6000120000EE79F0160EEE6AE806FDE15E6AEB
:102C70005D6ACC0EF66E2E0EF76E000EF86E090031
:102C8000F5CF93F00900F5CF94F00900F5CF95F05A
:102C9000CF0EF66E2E0EF76E000EF86E0900F5CF11
:102CA0005FF0000EF86E0001DEEF15F0000E4D1A19
:102CB000000E4E1A000E4F1A800E501A49C035F001
:102CC0004AC036F04BC037F04CC038F04DC039F038
:102CD0004EC03AF04FC03BF050C03CF01AEC0CF044
:102CE00035C049F036C04AF037C04BF038C04CF020
:102CF0001200910E126E080E136EE3EC16F0020E27
:102D00005CEC14F0870E516E000E526EB30E536ED3
:102D1000080E546E83C055F084C056F085C057F03D
:102D200086C058F05EEC04F0870E126E000E136E33
:102D300032EC17F012005FC001F0026A07C003F026
:102D400008C004F01FEC17F001C05BF002C05CF09B
:102D500006D0500EE82EFED75B06D8A05C065B506E
:102D60005C10D8B41200F5D70C6E0BB002D08A9864
:102D700001D08A880AB002D08A9A01D08A8A09B022
:102D800002D08A9C01D08A8C0CB002D08A9E01D0DD
:102D90008A8E53EC17F01200015002100310041039
:102DA000D8B408D0000E011A000E021A000E031A41
:102DB000800E041A01C001F002C002F003C003F04B
:102DC00004C004F012000AD012C0F6FF13C0F7FFCF
:102DD0000800F55073EC15F0124A132A12C0F6FFE2
:102DE00013C0F7FF0800F5500009D8B41200ECD763
:102DF0000E6E000E096E000E0A6E000E0B6E000EB7
:102E0000B4EC16F0010E096E0EC00AF00DC00BF006
:102E1000010EB4EC16F01200000E096E000E0A6EE0
:102E2000000E0B6E000EB4EC16F0000E096E000ED4
:102E30000A6E010E0B6E000EB4EC16F0120001507B
:102E40000302F3CF05F0F4CF06F001500402F35073
:102E5000062602500302F350062605C001F006C004
:102E600002F0120009D012C0D9FF13C0DAFFDF5000
:102E700073EC15F0124A132A12C0D9FF13C0DAFFFF
:102E8000DF50D8B41200EFD7036E000E026E3A0E78
:102E9000036005D02F0E036402D0010E026E02C043
:102EA00001F0013012008A86000E086E010E076ED6
:102EB0009BEC16F08A96000E086E010E076E9BECD6
:102EC00016F01200016E01C05FF012000001031441
:020000040020DA
:08000000FFFFFFFFFFFFFFFF00
:020000040030CA
:0E000000000C1F1EFF8381FF0FC00FE00F409A
:00000001FF
