:040000000BEF00F012
:100008005182FACF01F0FBCF02F0F8ED18F08DEF36
:020018001BF0DB
:10080000000000803FCDCCCC3D0AD7233C6F128343
:100810003A17B7D138ACC52737BD37863595BFD61F
:100820003377CC2B325F708930FFE6DB2E08E53C56
:100830001E6042A20D0000803F000020410000C861
:100840004200007A4400401C460050C34700247414
:10085000498096184B20BCBE4C286B6E4EF9021591
:1008600050EC78AD60CAF24971010000000A000046
:100870000064000000E803000010270000A08601CB
:100880000040420F008096980000E1F50500CA9AEA
:100890003B4369636C6F2072696361726963612EA7
:1008A0002E0062617474657269612073636172699C
:1008B000636100436172696361207465726D696E82
:1008C00061746100736361726963612064613A00FD
:1008D0006361706163697461273A0020493A252E8B
:1008E0003366006369616F6E6500563A252E336684
:1008F00000252E34660041680000800E00018A6FDA
:10090000000E00018B6F87EF08F0250E00019E1985
:10091000D8B407D07CC0D9FF7DC0DAFF9EC0DFFF0E
:10092000F3D3000E00018D6F000E8C6F7EC0F6FFBA
:100930007FC0F7FF0800F5502E0AD8A434D000017C
:100940008D8D00017E4B7F2B000E0001996F000EF4
:10095000986F1ED098C00FF099C010F0000E126E64
:100960000A0E116ECBEC1CF07EC0F6FF7FC0F7FFC5
:100970000800F5500F26000E1022D00E0F240001A3
:10098000986FFF0E10200001996F00017E4B7F2BA6
:100990007EC0F6FF7FC0F7FF0800F55000EC1DF0A9
:1009A000D8A00CD0D7D7000E0001996F000E986F19
:1009B00000018D8903D000018D8513D07EC0F6FF24
:1009C0007FC0F7FF00017E4B7F2B0800F5CF9EF024
:1009D00000019E51000AD8B4A9D3660AD8B4EBD757
:1009E00096D3070E00018D15D8B439D300018DA917
:1009F00005D0000E0001996F060E986F8AC0D9FFCE
:100A00008BC0DAFFDECF9AF0DECF9BF0DECF9CF01A
:100A1000DECF9DF0040E00018A27000E8B2300011B
:100A20009DAF15D09AC00FF09BC010F09CC011F084
:100A30009DC012F078EC1CF00FC09AF010C09BF033
:100A400011C09CF012C09DF0030E00018C13000E2B
:100A50000001936F000E926F00019A5100019B11EB
:100A600000019C1100019D11D8B488D000019C3573
:100A70009D35820F0001926F0001936BFF0E93234F
:100A800000019207D8A0930792C00FF093C010F016
:100A9000000E126E030E116ECBEC1CF00FC092F024
:100AA00010C093F092C015F093C016F0000E186EAF
:100AB0000A0E176E0AEC1AF015C092F016C093F0E9
:100AC000000193AF04D000019207D8A09307000162
:100AD00092510008F1EC0AF036C094F037C095F05E
:100AE00038C096F039C097F094C01DF095C01EF044
:100AF00096C01FF097C020F09AC021F09BC022F052
:100B00009CC023F09DC024F0FDEC0CF01DC094F0BF
:100B10001EC095F01FC096F020C097F094C00FF053
:100B200095C010F096C011F097C012F0000E136E31
:100B3000000E146E800E156E3F0E166E5EEC17F0F2
:100B4000D8B005D000019207D8A0930717D094C061
:100B50000FF095C010F096C011F097C012F0000E83
:100B6000136E000E146E200E156E410E166E5EECA6
:100B700017F0D8A003D00001924B932B000199BF2E
:100B800008D00001995123E10D0E0001985DD8B005
:100B90001ED09AC060F09BC061F09CC062F09DC006
:100BA00063F000019851D2EC11F036C064F037C008
:100BB00065F038C066F039C067F09DEC08F060C0A1
:100BC0009AF061C09BF062C09CF063C09DF0000190
:100BD00093BF08D0000193512AE10A0E0001925DF3
:100BE000D8B025D000019A5100019B1100019C1141
:100BF00000019D11D8B467D09AC03FF09BC040F06F
:100C00009CC041F09DC042F07BEC18F03F5040107A
:100C100041104210D8A457D0000193BF54D0000116
:100C2000935105E1020E0001925DD8A04CD094C012
:100C30000FF095C010F096C011F097C012F05F0E43
:100C4000136E700E146E890E156E400E166E5EECED
:100C500017F0D8B003D00001F70E02D00001F80E53
:100C60009227FF0E932300019251F1EC0AF036C057
:100C700094F037C095F038C096F039C097F09AC01C
:100C80000FF09BC010F09CC011F09DC012F094C0FA
:100C900013F095C014F096C015F097C016F0CAEC8A
:100CA00016F00FC08EF010C08FF011C090F012C07F
:100CB00091F0000E00019A6F000E9B6F000E9C6F6A
:100CC000000E9D6F3CD09AC03FF09BC040F09CC08E
:100CD00041F09DC042F07BEC18F03FC08EF040C068
:100CE0008FF041C090F042C091F09AC074F09BC068
:100CF00075F09CC076F09DC077F08EC00FF08FC06D
:100D000010F090C011F091C012F0000EEAEC14F057
:100D10000FC078F010C079F011C07AF012C07BF0EB
:100D2000E1EC1BF074C09AF075C09BF076C09CF0AB
:100D300077C09DF0000E0001936F000E926F010EC0
:100D400000019E6F0A0E00019E19D8B41ED000014A
:100D50009E51040D690EF324F66E080EF420F76E12
:100D60000900F55000018E5D0900F55000018F5912
:100D70000900F550000190590900F5500001915902
:100D8000D8A003D000019E2BDDD7030E00018C15E7
:100D90000001846F000E00018D150001856F0001B8
:100DA000845100018511D8B454D07CC0D9FF7DC0D6
:100DB000DAFF2D0E4CD000017C4B7D2B4AD08EC02B
:100DC0000FF08FC010F090C011F091C012F0000130
:100DD0009E51040D690EF324F66E080EF420F76E92
:100DE0000900F5CF13F00900F5CF14F00900F5CF95
:100DF00015F00A00F5CF16F04CEC1AF00FC094F085
:100E000010C095F011C096F012C097F094C00FF08A
:100E100095C010F096C011F097C012F00A0E136E34
:100E2000000E146E000E156E000E166EFDEC1AF01C
:100E30000FC094F010C095F011C096F012C097F05A
:100E400000019451300F7CC0D9FF7DC0DAFFDF6E06
:100E5000B2D700019E0700019E29D8B40ED0AFD7AB
:100E60007CC0D9FF7DC0DAFF300EDF6E00017C4B05
:100E70007D2B00019207D8A09307000193BF07D0F4
:100E800000019351EDE100019205D8B0E9D70001CE
:100E900099BF0CD00001995105E1090E0001985D40
:100EA000D8A004D0080E00019E6F02D098C09EF01A
:100EB00000019E510001985F000E00019EBFFF0ED1
:100EC0000001995B00019E510001D8B409D07CC09B
:100ED000D9FF7DC0DAFF2E0EDF6E00017C4B7D2B2B
:100EE00000019E51F1EC0AF036C086F037C087F061
:100EF00038C088F039C089F09AC021F09BC022F038
:100F00009CC023F09DC024F086C01DF087C01EF059
:100F100088C01FF089C020F0FDEC0CF01DC03FF030
:100F20001EC040F01FC041F020C042F07BEC18F022
:100F30003FC08EF040C08FF041C090F042C091F0B1
:100F400073D08EC00FF08FC010F090C011F091C020
:100F500012F000019E51040D690EF324F66E080E86
:100F6000F420F76E0900F5CF13F00900F5CF14F067
:100F70000900F5CF15F00A00F5CF16F04CEC1AF089
:100F80000FC094F010C095F011C096F012C097F009
:100F900094C00FF095C010F096C011F097C012F0F9
:100FA0000A0E136E000E146E000E156E000E166EF5
:100FB000FDEC1AF00FC094F010C095F011C096F03F
:100FC00012C097F000019451300F7CC0D9FF7DC052
:100FD000DAFFDF6E00017C4B7D2B8EC00FF08FC0DF
:100FE00010F090C011F091C012F000019E51040D5C
:100FF000690EF324F66E080EF420F76E0900F5CFA3
:1010000013F00900F5CF14F00900F5CF15F00A0030
:10101000F5CF16F0FDEC1AF00FC08EF010C08FF077
:1010200011C090F012C091F000019E0700019E29AE
:10103000D8B40ED086D77CC0D9FF7DC0DAFF300E81
:10104000DF6E00017C4B7D2B00019807D8A099072B
:101050000001985100019911D8B459D0ECD7000182
:10106000985100019911D8A40DD000018E510001B2
:101070008F110001901100019111D8A403D000013B
:10108000984B992B800E00019EBF7F0E0001846F4C
:101090000001985100019E5D00019951800A0001F4
:1010A0008459D8B003D098C09EF018D0000199514F
:1010B000800A0001846F00019E510001985D800E3E
:1010C00000019EBF7F0E00018459D8B007D00001F7
:1010D0009E510001986F996B98BF9907030E00010C
:1010E0008C150001846F000E00018D150001856FC5
:1010F0000001845100018511D8B409D07CC0D9FF0A
:101100007DC0DAFF2D0EDF6E00017C4B7D2B7EC093
:10111000F6FF7FC0F7FF00017E4B7F2B0800F5CF65
:101120009EF000019E51D8A485EF04F07CC0D9FF49
:101130007DC0DAFF000EDF6E120000016351800BEC
:101140000001706F0001635163250001726F00019F
:1011500062AF02D000017281000172510001D8B467
:1011600012D000017229D8A409D0000E0001606FCE
:10117000000E616F000E626F000E636F0001628FE0
:10118000000E000108D0000E0001606F000E616FBC
:10119000000E626F000E636F00016751800B00014B
:1011A000716F0001705100017119D8B402D00001B3
:1011B000708D0001675167250001716F000166AFF6
:1011C00002D000017181000171510001D8B412D028
:1011D00000017129D8A409D0000E0001646F000E2F
:1011E000656F000E666F000E676F0001668F000E60
:1011F000000108D0000E0001646F000E656F000E44
:10120000666F000E676F000172510001715DD8B00A
:1012100024D0000170AD03D0800E0001701B72C09D
:1012200073F071C072F073C071F060C073F064C08D
:1012300060F073C064F061C073F065C061F073C0AA
:1012400065F062C073F066C062F073C066F063C0A0
:1012500073F067C063F073C067F0000E0001736F36
:10126000000172510001686F696B0001681F691FFE
:10127000684B692B0001715100016A6F6B6B0001B3
:10128000685100016A270001695100016B230001C8
:101290006BBF3DD000016B5105E11A0E00016A5D84
:1012A000D8A035D000016051000161110001621128
:1012B00000016311D8B402D0010E01D0000E00016C
:1012C000736F000E0001606F000E616F000E626FA1
:1012D000000E636F71C072F020D0000173A107D0BF
:1012E0000001D890733101090001736F03D0000130
:1012F000D8907333000160A102D00001738F000108
:10130000633563336233613360330001722B000154
:1013100071510001725DD8A0E0D7000170BD3FD0CF
:10132000000172510001D8A40AD0000E0001606FC4
:10133000000E616F000E626F000E636F12000001FD
:101340006451000160270001655100016123000123
:10135000665100016223000167510001632300010F
:1013600063A1CCD0000173A109D00001D8907333E0
:101370000001735101090001736F03D00001D8907F
:101380007333000160A102D00001738F0001633547
:1013900063336233613360330001722BAFD00001DD
:1013A00064510001605D0001655100016159000157
:1013B00066510001625900016351800A0001686FA3
:1013C00000016751800A00016859D8B050D060C050
:1013D00068F061C069F062C06AF063C06BF0000140
:1013E000681F691F6A1F6B1F682B000E69236A2321
:1013F0006B23000164510001682500016C6F00013E
:1014000065510001692100016D6F00016651000105
:101410006A2100016E6F0001675100016B2100011C
:101420006F6FFF0E00016C250001606FFF0E000161
:101430006D210001616FFF0E00016E210001626FDE
:10144000FF0E00016F210001636F800E0001701B11
:101450000001736D000173510001D8A418D0010E72
:1014600000016027000E61236223632310D0000176
:1014700064510001605F000165510001615B000182
:1014800066510001625B000167510001635B00016E
:101490006051000161110001621100016311D8A4C3
:1014A0002AD0000173510001D8A425D0000E0001FC
:1014B000606F000E616F000E626F000E636F1200AE
:1014C0000001D8906037613762376337000173AF2E
:1014D00002D000016081000173A103D0D880000117
:1014E00002D00001D8907337000172510001D8B4C6
:1014F00002D000017207000162AFE2D7000E0001C6
:10150000716F000173AF0DD073C068F07F0E0001E2
:101510006817D8A403D0000160A103D0010E000118
:10152000716F000171510001D8B426D0010E000185
:101530006027000E612362236323000163A11CD096
:1015400060C068F061C069F062C06AF063C06BF0AF
:1015500000016B356B336A336933683368C060F000
:1015600069C061F06AC062F06BC063F0000172296B
:10157000D8B402D00001722B00017229D8B405D072
:10158000000172510001D8A411D0000E0001606F5B
:10159000000E616F000E626F000E636F00017251EA
:1015A0000001D8A403D0000E0001706F000172A1E9
:1015B00003D00001628F02D00001629F0001D89029
:1015C00072310001636F000170AF02D00001638FC0
:1015D00060C060F061C061F062C062F063C063F03F
:1015E00012003E6E3EAE05D13E6C3E50800A120F98
:1015F000D8A098D0000E186E0A0E176E000E126E4C
:10160000640E116E3E500F6E106A0FBE10068DEC08
:101610001AF00FC015F010C016F00AEC1AF0D890AE
:1016200015361636D89015361636240E1526000EA9
:101630001622010E1524F66E080E1620F76E09000C
:10164000F5CF21F00900F5CF22F00900F5CF23F006
:101650000A00F5CF24F0000E186E640E176E3E508F
:10166000156E166A15BE16060AEC1AF0D8901536D5
:101670001636D89015361636480E1526000E162248
:10168000010E1524F66E080E1620F76E0900F5CF30
:101690001DF00900F5CF1EF00900F5CF1FF00A007C
:1016A000F5CF20F0FDEC0CF01DC03AF01EC03BF071
:1016B0001FC03CF020C03DF03AC01DF03BC01EF002
:1016C0003CC01FF03DC020F0000E126E0A0E116EDD
:1016D0003E500F6E106A0FBE10068DEC1AF0D890B7
:1016E0000F361036D8900F361036010E0F24F66ED6
:1016F000080E1020F76E0900F5CF21F00900F5CF94
:1017000022F00900F5CF23F00A00F5CF24F0FDEC1C
:101710000CF01DC036F01EC037F01FC038F020C0DE
:1017200039F012003E50800A750FD8A04DD0000E3F
:10173000186E0A0E176E3E50156E166A15BE160606
:101740000AEC1AF0D89015361636D890153616369B
:10175000240E1526000E1622010E1524F66E080E14
:101760001620F76E0900F5CF1DF00900F5CF1EF029
:101770000900F5CF1FF00A00F5CF20F0000E126E21
:101780000A0E116E3E500F6E106A0FBE10068DECE1
:101790001AF0D8900F361036D8900F361036010E4A
:1017A0000F24F66E080E1020F76E0900F5CF21F019
:1017B0000900F5CF22F00900F5CF23F00A00F5CF9C
:1017C00024F0FDEC0CF0A5D73E50040D010EF324DF
:1017D000F66E080EF420F76E0900F5CF36F009001A
:1017E000F5CF37F00900F5CF38F00A00F5CF39F022
:1017F00012003E50800A120FD8A098D0000E186E2A
:101800000A0E176E000E126E640E116E3E500F6EB1
:10181000106A0FBE10068DEC1AF00FC015F010C044
:1018200016F00AEC1AF0D89015361636D890153600
:101830001636240E1526000E1622350E1524F66EC9
:10184000080E1620F76E0900F5CF21F00900F5CF3C
:1018500022F00900F5CF23F00A00F5CF24F0000EA6
:10186000186E640E176E3E50156E166A15BE16067B
:101870000AEC1AF0D89015361636D890153616366A
:10188000480E1526000E1622350E1524F66E080E8B
:101890001620F76E0900F5CF1DF00900F5CF1EF0F8
:1018A0000900F5CF1FF00A00F5CF20F0FDEC0CF099
:1018B0001DC03AF01EC03BF01FC03CF020C03DF000
:1018C0003AC01DF03BC01EF03CC01FF03DC020F0F0
:1018D000000E126E0A0E116E3E500F6E106A0FBE91
:1018E00010068DEC1AF0D8900F361036D8900F36BF
:1018F0001036350E0F24F66E080E1020F76E090014
:10190000F5CF21F00900F5CF22F00900F5CF23F043
:101910000A00F5CF24F0FDEC0CF01DC036F01EC01F
:1019200037F01FC038F020C039F012003E50800A56
:10193000750FD8A04DD0000E186E0A0E176E3E50CF
:10194000156E166A15BE16060AEC1AF0D8901536F2
:101950001636D89015361636240E1526000E162289
:10196000350E1524F66E080E1620F76E0900F5CF19
:101970001DF00900F5CF1EF00900F5CF1FF00A0099
:10198000F5CF20F0000E126E0A0E116E3E500F6E53
:10199000106A0FBE10068DEC1AF0D8900F36103674
:1019A000D8900F361036350E0F24F66E080E102024
:1019B000F76E0900F5CF21F00900F5CF22F00900FC
:1019C000F5CF23F00A00F5CF24F0FDEC0CF0A5D7FD
:1019D0003E50040D350EF324F66E080EF420F76E1B
:1019E0000900F5CF36F00900F5CF37F00900F5CF43
:1019F00038F00A00F5CF39F012002050800B296E24
:101A0000205020242F6E1FBE2F802F50D8B40DD011
:101A10002F28D8A408D0000E1D6E000E1E6E000EDA
:101A20001F6E000E206E1F8E08D0000E1D6E000E61
:101A30001E6E000E1F6E000E206E2450800B291AA1
:101A4000245024242E6E23BE2E802E50D8B40DD0C8
:101A50002E28D8A408D0000E216E000E226E000E93
:101A6000236E000E246E238E08D0000E216E000E11
:101A7000226E000E236E000E246E2E50D8B403D0BA
:101A80002F50D8A409D0000E1D6E000E1E6E000E41
:101A90001F6E000E206E120023501D02F3CF34F093
:101AA000F4CF35F034502A6E2B6A2C6A2D6A3550EB
:101AB000306E316A326A336A22501E02F3CF34F03C
:101AC000F4CF35F034502A26000E2B222C222D2262
:101AD00035503026000E31223222332221501F028F
:101AE000F3CF34F0F4CF35F034502A26000E2B22F9
:101AF0002C222D2235503026000E31223222332264
:101B00002CC02DF02BC02CF02AC02BF02A6A2150BB
:101B10001E02F3CF34F0F4CF35F034502A2635507E
:101B20002B22000E2C22000E2D2222501D02F3CF5C
:101B300034F0F4CF35F034502A2635502B22000EE5
:101B40002C22000E2D222CC02DF02BC02CF02AC0F0
:101B50002BF02A6A21501D02F3CF34F0F4CF35F078
:101B600034502A2635502B22000E2C22000E2D2216
:101B700023501E02F3CF34F0F4CF35F0345030262A
:101B800035503122000E3222000E332222501F0225
:101B9000F3CF34F0F4CF35F03450302635503122C5
:101BA000000E3222000E332223501F02F3CF34F0F6
:101BB000F4CF35F03450256E3550266E276A286AEA
:101BC00027C028F026C027F025C026F0256A25501A
:101BD00030262650312227503222285033222AC064
:101BE00025F02BC026F02CC027F02DC028F0190EB0
:101BF00005D0D8902832273226322532E82EF9D760
:101C000025503026265031222750322228503322A8
:101C10002CC02DF02BC02CF02AC02BF02A6A2E509D
:101C20002FC025F0266A2526000E2622820E2524A6
:101C3000346EFF0E2620356E0FD0D89030363136F8
:101C4000323633362DBE3080D8902A362B362C369D
:101C50002D363406D8A0350632AEEFD7000E2E6EE4
:101C60002DAE16D0FF0E2A14256EFF0E2B14266EF5
:101C7000FF0E2C14276E7F0E2D14286E2550261073
:101C800027102810D8A402D030A002D0010E2E6E4A
:101C90002E50D8B41FD0010E3026000E3122322231
:101CA000332233A017D030C025F031C026F032C027
:101CB00027F033C028F02834283227322632253244
:101CC00025C030F026C031F027C032F028C033F0F4
:101CD000344A352A35BE0DD0355003E13428D8A01A
:101CE00008D0000E306E000E316E800E326E7F0E08
:101CF00020D035BE05D035500EE13404D8B00BD01D
:101D0000000E306E000E316E000E326E000E336E1D
:101D1000000E296E0FD034C02FF0FF0E3016FF0ECC
:101D200031167F0E3216000E33162FB0328ED89039
:101D30002F30336E2950331230C01DF031C01EF0E9
:101D400032C01FF033C020F012003950800B000168
:101D5000606F3950392400016B6F38AE02D000013A
:101D60006B8100016B510001D8B40ED000016B29CA
:101D7000D8A408D0000E366E000E376E000E386EF6
:101D8000000E396E388E06D0000E366E000E376E9D
:101D9000000E386E000E396E3D50800B0001601B46
:101DA0003D503D2400016C6F3CAE02D000016C81BF
:101DB00000016C510001D8B40ED000016C29D8A4E8
:101DC00008D0000E3A6E000E3B6E000E3C6E000E08
:101DD0003D6E3C8E06D0000E3A6E000E3B6E000E3D
:101DE0003C6E000E3D6E3A503B103C103D10D8A4A6
:101DF00015D0000E366E000E376E000E386E000ED7
:101E0000396E800E38127F0E391236C036F037C068
:101E100037F038C038F039C039F0120000016B518A
:101E20000001D8A411D0000E366E000E376E000EE1
:101E3000386E000E396E36C036F037C037F038C015
:101E400038F039C039F0120000016C513E6E3F6A23
:101E50003E1E3F1E3E4A3F2A00016B51406E416AC2
:101E60003E5040263F5041227F0E40240001656FC6
:101E7000000E41200001666F36C061F037C062F08D
:101E800038C063F039C064F0000E366E000E376E55
:101E9000000E386E000E396E000E0001676F000EE6
:101EA000686F000E696F000E6A6F000E00016C6FA4
:101EB00037D000016C510001D8B414D00001D89083
:101EC0006137623763376437D890363637363836FD
:101ED000393600016ABF36800001D890673768370D
:101EE00069376A373A500001615D3B500001625921
:101EF0003C50000163593D5000016459D8A00ED0F8
:101F000000016A8D3A500001615F3B500001625B45
:101F10003C500001635B3D500001645B00016C2B91
:101F2000190E00016C65C5D70001615100016211F5
:101F30000001631100016411D8B415D0000167815C
:101F400012D0D890363637363836393600016ABF67
:101F500036800001D8906737683769376A370001E3
:101F60006507D8A0660738AEECD7000E00016C6F8D
:101F700000016AAF1BD0FF0E000167153E6EFF0E19
:101F8000000168153F6EFF0E00016915406E7F0E5F
:101F900000016A15416E3E503F1040104110D8A418
:101FA00002D036A003D0010E00016C6F00016C510D
:101FB0000001D8B420D0010E3626000E3722382278
:101FC000392239A018D036C03EF037C03FF038C0B3
:101FD00040F039C041F04134413240323F323E326C
:101FE0003EC036F03FC037F040C038F041C039F055
:101FF0000001654B662B000166BF13D000016651DE
:1020000004E100016529D8A00CD0000E0001666F24
:102010006569000E366E000E376E000E386E000ECB
:10202000396E000166BF07D00001665114E100015E
:102030006505D8B010D0000E0001666F000E656F08
:10204000000E366E000E376E000E386E000E396EC2
:10205000000E0001606F65C06BF000016BA102D043
:10206000388E01D0389E0001D8906B31396E000156
:102070006051391236C036F037C037F038C038F00A
:1020800039C039F01200000E0001B56F000EB66FB6
:10209000000EB76F000EB86F850ED56E0B0ED76EA3
:1020A000DC0ED66EF28EF294F28A000E0001C66F3C
:1020B000000EC56F000E0001C26F000EC16F000E52
:1020C0000001C46F000EC36FE2D0B8EC1CF0808436
:1020D000C40E206E080E216E8FEC1CF00001C3515F
:1020E0000001C411D8A41BD0C1C027F0C2C028F081
:1020F000020E296E010E2A6E92EC15F0D90E206E9A
:10210000080E216E8FEC1CF0C5C027F0C6C028F069
:10211000020E296E010E2A6E92EC15F01AD0C3C081
:1021200027F0C4C028F0020E296E010E2A6E92EC30
:1021300015F0D90E206E080E216E8FEC1CF0C1C078
:1021400027F0C2C028F0020E296E010E2A6E92EC12
:1021500015F00FEC13F0020E5CEC19F0C70E000145
:102160007C6F000E00017D6FEA0E00017E6F080E8D
:1021700000017F6FBDC080F0BEC081F0BFC082F0A3
:10218000C0C083F07DEC04F0000E0001CE6FC70EDE
:10219000206E000E216EDEEC1CF0C70E00017C6F7D
:1021A000000E00017D6FDB0E00017E6F080E000146
:1021B0007F6FADC080F0AEC081F0AFC082F0B0C024
:1021C00083F07DEC04F0000E0001CE6FC70E206E90
:1021D000000E216EDEEC1CF00A0EF0EC1CF0B9C013
:1021E0009FF0BAC0A0F0BBC0A1F0BCC0A2F000013B
:1021F0009F1FA01FA11FA21F9F2B000EA023A12382
:10220000A2230001B55100019F250001A36F000129
:10221000B6510001A0210001A46F0001B7510001D7
:10222000A1210001A56F0001B8510001A221000108
:10223000A66F0001A6510001A5110001A41105E13E
:102240003B0E0001A35DD8A022D0B5C0B9F0B6C046
:10225000BAF0B7C0BBF0B8C0BCF0ADC060F0AEC063
:1022600061F0AFC062F0B0C063F0B1C064F0B2C062
:1022700065F0B3C066F0B4C067F09DEC08F060C0D4
:10228000B1F061C0B2F062C0B3F063C0B4F0000E50
:102290000F6E000E106E200E116E410E126EBDC03C
:1022A00013F0BEC014F0BFC015F0C0C016F05EEC55
:1022B00017F0D8A00AD7B8EC1CF0A20E206E080EBA
:1022C000216E8FEC1CF0020E5CEC19F0D00E206E2B
:1022D000080E216E8FEC1CF0B1C036F0B2C037F0A2
:1022E000B3C038F0B4C039F0000E3A6E000E3B6E49
:1022F000700E3C6E420E3D6EA5EC0EF036C0B1F095
:1023000037C0B2F038C0B3F039C0B4F0B1C036F065
:10231000B2C037F0B3C038F0B4C039F0C3C00FF06A
:10232000C4C010F0116A126A000EEAEC14F00FC07B
:102330003AF010C03BF011C03CF012C03DF0A5ECEB
:102340000EF036C0B1F037C0B2F038C0B3F039C0CB
:10235000B4F0C70E00017C6F000E00017D6FF10E1E
:1023600000017E6F080E00017F6FB1C080F0B2C027
:1023700081F0B3C082F0B4C083F07DEC04F0000EB5
:102380000001CE6FC70E206E000E216EDEEC1CF039
:10239000F60E206E080E216E8FEC1CF0050EF0EC90
:1023A0001CF01200426E6D0E4264ACD0000E186E2E
:1023B0000A0E176E000E126E640E116E42C00FF000
:1023C000106A8DEC1AF00FC015F010C016F00AEC70
:1023D0001AF0D89015361636D89015361636240EC3
:1023E0001526000E1622010E1524F66E080E162074
:1023F000F76E0900F5CF21F00900F5CF22F00900B2
:10240000F5CF23F00A00F5CF24F0000E186E640E0D
:10241000176E42C015F0166A0AEC1AF0D8901536FD
:102420001636D89015361636480E1526000E16228A
:10243000010E1524F66E080E1620F76E0900F5CF72
:102440001DF00900F5CF1EF00900F5CF1FF00A00BE
:10245000F5CF20F0FDEC0CF01DC03EF01EC03FF0AB
:102460001FC040F020C041F0000E126E0A0E116E27
:1024700042C00FF0106A8DEC1AF0D8900F3610366B
:10248000D8900F361036010E0F24F66E080E10206D
:10249000F76E0900F5CF21F00900F5CF22F0090011
:1024A000F5CF23F00A00F5CF24F03EC01DF03FC069
:1024B0001EF040C01FF041C020F0FDEC0CF01DC02C
:1024C0003AF01EC03BF01FC03CF020C03DF03AC0C7
:1024D0001DF03BC01EF03CC01FF03DC020F0000EC0
:1024E000216E000E226E000E236E3F0E246EFDEC58
:1024F0000CF01DC036F01EC037F01FC038F020C0F1
:1025000039F012000A0E426463D0000E126E0A0EF9
:10251000116E42C00FF0106A8DEC1AF0D8900F3691
:102520001036D8900F361036010E0F24F66E080EB6
:102530001020F76E0900F5CF21F00900F5CF22F049
:102540000900F5CF23F00A00F5CF24F0000E186E35
:102550000A0E176E42C015F0166A0AEC1AF0D890EF
:1025600015361636D89015361636240E1526000E5A
:102570001622010E1524F66E080E1620F76E0900BD
:10258000F5CF1DF00900F5CF1EF00900F5CF1FF0C3
:102590000A00F5CF20F0FDEC0CF01DC03EF01EC08F
:1025A0003FF01FC040F020C041F03EC01DF03FC0D2
:1025B0001EF040C01FF041C020F0000E216E000E42
:1025C000226E000E236E3F0E246EFDEC0CF091D7B0
:1025D0004250040D010EF324F66E080EF420F76E3F
:1025E0000900F5CF1DF00900F5CF1EF00900F5CF69
:1025F0001FF00A00F5CF20F0000E216E000E226EB3
:10260000000E236E3F0E246EFDEC0CF01DC036F064
:102610001EC037F01FC038F020C039F01200000E85
:1026200000016D6F020E00016D6501D049D00001FF
:102630006D51010DCF0EF324D96E000EF420DA6E29
:10264000DF50C26EC280C282C2B2FED7C450426E98
:10265000436A00016D51020DA70EF324D96E000EDE
:10266000F420DA6E42C0DEFF43C0DDFF00016D5191
:10267000020DA70EF324D96E000EF420DA6EDECF21
:1026800042F0DDCF43F042C043F0426AC3504212F1
:10269000000E431200016D51020DA70EF324D96EF6
:1026A000000EF420DA6E42C0DEFF43C0DDFF000EF4
:1026B000166E050E156E47EC1CF000016D2BB2D79F
:1026C00020EEA9F0DECF42F0DDCF43F0421E431EE4
:1026D000424A432A0001A75142260001A851432241
:1026E00042C00FF043C010F0000E10BEFF0E116E7E
:1026F000126E010EEAEC14F00FC0ADF010C0AEF097
:1027000011C0AFF012C0B0F0ADC01DF0AEC01EF0F1
:10271000AFC01FF0B0C020F0000E216E000E226E80
:10272000A00E236E400E246EFDEC0CF01DC0ADF02B
:102730001EC0AEF01FC0AFF020C0B0F0ADC036F08C
:10274000AEC037F0AFC038F0B0C039F0000E3A6E0E
:10275000000E3B6E800E3C6E440E3D6EA5EC0EF0FE
:1027600036C0ADF037C0AEF038C0AFF039C0B0F011
:10277000ADC036F0AEC037F0AFC038F0B0C039F001
:10278000CD0E3A6ECC0E3B6E4C0E3C6E3E0E3D6E48
:10279000A5EC0EF036C0ADF037C0AEF038C0AFF0EB
:1027A00039C0B0F020EEABF0DECF0FF0DDCF10F08F
:1027B000000E10BEFF0E116E126E010EEAEC14F048
:1027C0000FC0BDF010C0BEF011C0BFF012C0C0F00D
:1027D000000E216E000E226EA00E236E400E246E9F
:1027E000BDC01DF0BEC01EF0BFC01FF0C0C020F0B5
:1027F000FDEC0CF01DC036F01EC037F01FC038F0E5
:1028000020C039F0000E3A6E000E3B6E800E3C6E1A
:10281000440E3D6EA5EC0EF036C0BDF037C0BEF0E4
:1028200038C0BFF039C0C0F0BDC036F0BEC037F010
:10283000BFC038F0C0C039F046C03AF047C03BF0E6
:1028400048C03CF049C03DF0A5EC0EF036C0BDF0EC
:1028500037C0BEF038C0BFF039C0C0F012000FEC76
:1028600013F05BD0828C010E5CEC19F0910E206E9F
:10287000080E216E8FEC1CF0020E5CEC19F0C70EF6
:1028800000017C6F000E00017D6FEA0E00017E6F7B
:10289000080E00017F6FBDC080F0BEC081F0BFC0D8
:1028A00082F0C0C083F07DEC04F0000E0001CE6F1A
:1028B000C70E206E000E216EDEEC1CF0C70E00016C
:1028C0007C6F000E00017D6FDB0E00017E6F080E35
:1028D00000017F6FADC080F0AEC081F0AFC082F06C
:1028E000B0C083F07DEC04F0000E0001CE6FC70E87
:1028F000206E000E216EDEEC1CF00FEC13F0030EC8
:10290000166EE80E156E47EC1CF0B8EC1CF0000ECD
:10291000166E0A0E156E47EC1CF0ADC00FF0AEC07F
:1029200010F0AFC011F0B0C012F0000E136E000E28
:10293000146E800E156E3F0E166E5EEC17F0D8A06A
:1029400091D7BDC00FF0BEC010F0BFC011F0C0C025
:1029500012F0000E136E000E146E580E156E410E1E
:10296000166E5EEC17F0D8A07DD7000E0F6E000E2D
:10297000106E800E116EBF0E126EADC013F0AEC0A1
:1029800014F0AFC015F0B0C016F05EEC17F0D8B080
:102990001200000E0F6E000E106E680E116E410ECA
:1029A000126EBDC013F0BEC014F0BFC015F0C0C0A1
:1029B00016F05EEC17F0D8B01200B30E206E080EC1
:1029C000216E8FEC1CF0130E166E880E156E47EC00
:1029D0001CF01200176E1750D8A412AE1AD00FC0F8
:1029E00013F010C014F011C015F012C016F0131E31
:1029F000141E151E161E132A000E1422152216224E
:102A000013C019F014C01AF015C01BF016C01CF04A
:102A100008D00FC019F010C01AF011C01BF012C07E
:102A20001CF00F50101011101210D8A409D0000E75
:102A30000F6E000E106E000E116E000E126E120060
:102A4000960E186E06D0182AD8901C321B321A32F5
:102A50001932000E1914136E000E1A14146E000EA3
:102A60001B14156EFE0E1C14166E13501410151048
:102A70001610D8B40DD0E7D7182A010E1926000E6B
:102A80001A221B221C22D8901C321B321A321932F5
:102A9000000E1914136E000E1A14146E000E1B147F
:102AA000156EFF0E1C14166E135014101510161010
:102AB000D8B407D0E1D71806D89019361A361B3685
:102AC0001C361BBE03D0020E1860F5D718B008D014
:102AD000FF0E1916FF0E1A167F0E1B16FF0E1C1680
:102AE000D890183218C013F0146A156A166A13C009
:102AF00016F0156A146A136A1350191214501A1238
:102B000015501B1216501C121750D8A412AE01D02B
:102B10001C8E19C00FF01AC010F01BC011F01CC0A1
:102B200012F0120020EE4AF010EE30F0050EDBCF6E
:102B3000E3FFE806FCE2300E1F6E000E206E27C099
:102B400021F028C022F0000E246E0A0E236E05EC40
:102B50001CF02950D8B47ED02950010D300EF3243A
:102B6000D96E000EF420DA6E000EDF6E4BD0290411
:102B7000366E3650D8B446D0FF0E2B6EFF0E2C6E3C
:102B800036502D6E2E6A2B502D262C502E22300EB4
:102B90002D24D96E000E2E20DA6E3650010D300E27
:102BA000F324E16E000EF420E26EDFCFE7FF2A048B
:102BB000D8A413D0FF0E2B6EFF0E2C6E36502D6E48
:102BC0002E6A2B502D262C502E22300E2D24D96EFD
:102BD000000E2E20DA6E200E12D0FF0E2B6EFF0E8E
:102BE0002C6E36502D6E2E6A2B502D262C502E22F8
:102BF000300E2D24D96E000E2E20DA6E300EDF6ED0
:102C00003606B7D7FF0E2B6EFF0E2C6E29502D6E99
:102C10002E6A2B502D262C502E22300E2D24D96EAC
:102C2000000E2E20DA6E3A0EDF60A1D7FF0E2B6E5B
:102C3000FF0E2C6E29502D6E2E6A2B502D262C50F7
:102C40002E22300E2D24D96E000E2E20DA6E2F0E7D
:102C5000DF648DD7300E206E000E216EDEEC1CF08E
:102C6000120011C017F0186A196A1034173601E300
:102C7000188017501F6E1F50D8A409D0000E0F6E79
:102C8000000E106E000E116E000E126E120015C0B6
:102C900017F0186A196A1434173601E318801750B0
:102CA0001E6E1E50D8A409D0000E0F6E000E106EBE
:102CB000000E116E000E126E1200108EFF0E0F1617
:102CC000FF0E1016000E1116148EFF0E1316FF0EB7
:102CD0001416000E1516000E1A6E000E1B6E000E56
:102CE0001C6E000E1D6E7F0E1F5E1E50980F1F5E25
:102CF000180E1E6ED8901A361B361C361D36135011
:102D00000F5C1450105815501158D8A007D013500C
:102D10000F5E1450105A1550115A1A80D8900F3661
:102D2000103611361E2EE6D71FAE16D01F50800A61
:102D3000970FD8B009D0000E0F6E000E106E000E67
:102D4000116E000E126E1200D8901D321C321B3212
:102D50001A321F3EF9D715D0170E1F640FD0000E80
:102D60000F6E000E106E000E116E000E126E12002D
:102D7000D8901A361B361C361D361F061F50D8A495
:102D8000F7D71AC00FF01BC010F01CC011F01DC007
:102D900012F01200113412341C6E1C50D8A409D049
:102DA000000E0F6E000E106E000E116E000E126EF1
:102DB0001200153416341B6E1B50D8A409D0000E17
:102DC0000F6E000E106E000E116E000E126E1200CD
:102DD000118EFF0E0F16FF0E1016FF0E1116000EAD
:102DE0001216158EFF0E1316FF0E1416FF0E151673
:102DF000000E1616000E176E000E186E000E196EDD
:102E0000000E1A6E7F0E1C5E1B50A00F1C5E200E63
:102E10001B6ED8901736183619361A3613500F5CB9
:102E2000145010581550115816501258D8A009D0E7
:102E300013500F5E1450105A1550115A1650125A52
:102E40001780D8900F361036113612361B2EE1D768
:102E50001CAE16D01C50800A9F0FD8B009D0000EAF
:102E60000F6E000E106E000E116E000E126E12002C
:102E7000D8901A321932183217321C3EF9D715D0B1
:102E80001F0E1C640FD0000E0F6E000E106E000E91
:102E9000116E000E126E1200D890173618361936C1
:102EA0001A361C061C50D8A4F7D717C00FF018C04C
:102EB00010F019C011F01AC012F01200000E0F1419
:102EC000176E000E1014186E800E1114196E7F0EFE
:102ED00012141A6E1750181019101A10D8A408D00E
:102EE000000E0F6E000E106E000E116E000E126EB0
:102EF000000E1314176E000E1414186E800E1514A5
:102F0000196E7F0E16141A6E1750181019101A1019
:102F1000D8A408D0000E136E000E146E000E156EAD
:102F2000000E166E12AE1DD00FC017F010C018F0B4
:102F300011C019F012C01AF0171E181E191E1A1E01
:102F4000172A000E182219221A22000E17240F6EBB
:102F5000000E1820106E000E1920116E800E1A201F
:102F6000126E16AE1DD013C017F014C018F015C0A5
:102F700019F016C01AF0171E181E191E1A1E172A4D
:102F8000000E182219221A22000E1724136E000EAA
:102F90001820146E000E1920156E800E1A20166E61
:102FA000000E0F1A000E101A000E111A800E121ABF
:102FB000000E131A000E141A000E151A800E161A9F
:102FC00013500F5C145010581550115816501258C9
:102FD000D8B002D0D8901200D88012001D6E1D50BB
:102FE0001EEC1DF08A928A968A94000E166E640E6C
:102FF000156E47EC1CF0000E176E010E186E010ED8
:10300000196E000E60EC1CF0000E166E640E156E4C
:1030100047EC1CF0000E176E010E186E010E196EB3
:10302000000E60EC1CF0000E166E0A0E156E47ECDA
:103030001CF0000E176E010E186E010E196E000EB8
:1030400060EC1CF0000E176E010E186E000E196E6B
:10305000000E60EC1CF0000E176E010E186E000ED4
:10306000196E000E60EC1CF0000E176E000E186E4C
:10307000000E196E010E60EC1CF0000E176E000EB3
:10308000186E000E196E000E60EC1CF0000E176E2C
:10309000000E186E000E196E010E60EC1CF0000E92
:1030A000176E000E186E000E196E000E60EC1CF00C
:1030B000000E176E000E186E010E196E000E60ECF9
:1030C0001CF0000E176E000E186E000E196E000E2A
:1030D00060EC1CF0010E176E010E186E000E196EDA
:1030E000000E60EC1CF0B8EC1CF0000E1B6E000E25
:1030F000A4EC1CF01200413442340001656F000161
:103100006551D8A409D0000E3F6E000E406E000E2F
:10311000416E000E426E12003FC060F040C061F090
:1031200041C062F042C063F0200E06D00001D8908A
:103130006333623361336033E82EF8D700016051A6
:103140000001646F418EFF0E3F16FF0E4016FF0E0A
:103150004116000E4216960E0001655F000165AF34
:1031600018D000016551800A970FD8B009D0000E21
:103170003F6E000E406E000E416E000E426E120059
:10318000D8904232413240323F320001653FF8D799
:1031900019D01F0E0001656510D0000E3F6E000EA5
:1031A000406E000E416E000E426E1200D8903F3607
:1031B0004036413642360001650700016551000185
:1031C000D8A4F4D7000164510001D8B408D0421E3D
:1031D000411E401E3F6C000E4022412242223FC051
:1031E0003FF040C040F041C041F042C042F0120008
:1031F0000600E9CF03F0EACF04F0E1CF05F0E2CF1B
:1032000006F0D9CF07F0DACF08F0F3CF09F0F4CF0A
:103210000AF0F6CF0BF0F7CF0CF0F8CF0DF0F5CFAA
:103220000EF0F2940B0ED76EDC0ED66E010E00017E
:10323000B527000EB623B723B8230001C54BC62B14
:103240003B0E0001C5190001C611D8A417D0000E0D
:103250000001C66F000EC56F0001C14BC22B3B0EB3
:103260000001C1190001C211D8A408D0000E00014C
:10327000C26F000EC16F0001C34BC42B0EC0F5FF1F
:103280000DC0F8FF0CC0F7FF0BC0F6FF0AC0F4FF3B
:1032900009C0F3FF08C0DAFF07C0D9FF06C0E2FF8C
:1032A00005C0E1FF04C0EAFF03C0E9FF02C0FBFF65
:1032B00001C0FAFF519211001B6E4CD0000E176E28
:1032C000000E186E000E196E010E60EC1CF0000E60
:1032D000176E000E186E000E196E000E60EC1CF0DA
:1032E0001200010E176E000E186E000E196E010E00
:1032F00060EC1CF0000E176E000E186E000E196EBA
:10330000000E60EC1CF01200000E176E000E186E1E
:10331000010E196E010E60EC1CF0010E176E000E0E
:10332000186E000E196E000E60EC1CF01200010EFB
:10333000176E000E186E010E196E010E60EC1CF077
:10334000010E176E000E186E000E196E000E60EC66
:103350001CF012001B50010AD8B4B0D7030AD8B42D
:10336000C0D7010AD8B4D0D7070AD8A41200DFD733
:1033700018C01CF019C01DF01CC00FF01DC010F0CB
:103380001AC011F01BC012F0B8EC1BF00FC01CF0FB
:1033900010C01DF0164A172A1C501D10D8A4ECD7D7
:1033A00016C0D9FF17C0DAFF000EDF6E1606D8A0D0
:1033B000170618C00FF019C010F01AC011F01BC08A
:1033C00012F026EC1CF00F501E6E18C00FF019C042
:1033D00010F01AC011F01BC012F0B8EC1BF00FC0B7
:1033E00018F010C019F0090E1E6402D0070E1E2638
:1033F000300E1E2616C0D9FF17C0DAFF1EC0DFFF31
:103400001606D8A0170618501910D8A4D2D7164AF5
:10341000172A1200000E1A6E18AE06D0176C181E6E
:10342000D8B0182A010E1A6E16AE06D0156C161EEC
:10343000D8B0162A010E1A1A000E1C6E000E1B6E52
:1034400017501810D8B41CD0010E196E04D0D890A3
:1034500017361836192A18AEFAD7D8901B361C36EC
:103460001750155C18501658D8A005D01750155E87
:103470001850165A1B80D89018321732192EEDD7D3
:103480001A50D8B404D01B6C1C1ED8B01C2A1BC008
:1034900015F01CC016F01200000E176E000E186E0C
:1034A000000E196E000E1A6E13501410151016101F
:1034B000D8B42AD0010E1B6E06D0D890133614361D
:1034C000153616361B2A16AEF8D7D890173618368A
:1034D00019361A3613500F5C1450105815501158E5
:1034E00016501258D8A009D013500F5E1450105A1D
:1034F0001550115A1650125A1780D890163215329C
:10350000143213321B2EE1D717C00FF018C010F081
:1035100019C011F01AC012F01200000E146E10AE95
:1035200006D00F6C101ED8B0102A010E146E12AE09
:1035300004D0116C121ED8B0122A11501210D8B437
:1035400018D0010E136E04D0D89011361236132AFB
:1035500012AEFAD711500F5C12501058D8A004D0F8
:1035600011500F5E1250105AD89012321132132E91
:10357000F1D71450D8B404D00F6C101ED8B0102A54
:103580000FC00FF010C010F012001F6E8A821F448F
:10359000010B1B6E1F44E846030B010B1C6E1F380A
:1035A000E842070B010B1D6E1F380F0B010B1E6E3F
:1035B0001CC017F01DC018F01EC019F01B5060ECA5
:1035C0001CF01F38E8461F0B010B1B6E1F40E84222
:1035D0003F0B010B1C6ED8901F30010B1D6E1F504E
:1035E000010B1E6E1CC017F01DC018F01EC019F094
:1035F0001B5060EC1CF08A9212001350141015102E
:103600001610D8B424D0010E176E06D0D8901336F9
:10361000143615361636172A16AEF8D713500F5C27
:10362000145010581550115816501258D8A008D0E0
:1036300013500F5E1450105A1550115A1650125A4A
:10364000D8901632153214321332172EE7D70FC026
:103650000FF010C010F011C011F012C012F01200E3
:10366000000E896EFB0E926E000E8A6E000E936E37
:10367000000E8B6E9468100EEEEC17F0E30E206EC9
:10368000080E216E8FEC1CF0030E166EE80E156E00
:1036900047EC1CF0B8EC1CF0000EC26E0B0EC16EB5
:1036A000B20EC06EC29AC298C296850ED56E0B0E2F
:1036B000D76EDC0ED66EF28EF294F28A1200100EE5
:1036C0001EEC1DF0000E466EA00E476ECA0E486E30
:1036D000460E496E000E366E780E376EFD0E386E51
:1036E000450E396E46C03AF047C03BF048C03CF04A
:1036F00049C03DF0A5EC0EF036C046F037C047F0AB
:1037000038C048F039C049F030EC1BF00FEC13F032
:103710002FEC14F043EC10F0FBD700EEA7F0280ECE
:10372000EE6AE806FDE14F6A4E6A4D6A4C6A4B6AE2
:103730004A6A440EF66E3A0EF76E000EF86E0900F5
:10374000F5CFCFF00900F5CFD0F00900F5CFD1F0DB
:10375000470EF66E3A0EF76E000EF86E0900F5CFC2
:1037600050F051905192000EF86E00015FEF1BF087
:10377000000E146E000E136E11501210D8B41CD02F
:10378000010E156E04D0D89011361236152A12AEDD
:10379000FAD7D8901336143611500F5C12501058C7
:1037A000D8A005D011500F5E1250105A1380D89037
:1037B00012321132152EEDD713C00FF014C010F0D5
:1037C0001200000E0001781B000E791B000E7A1B00
:1037D000800E7B1B74C060F075C061F076C062F033
:1037E00077C063F078C064F079C065F07AC066F0A5
:1037F0007BC067F09DEC08F060C074F061C075F0AC
:1038000062C076F063C077F012001FC025F020C0C0
:1038100026F022AE0CD01FC0D9FF20C0DAFF2D0E3B
:10382000DF6E1F4A202A216C221ED8B0222A1FC018
:1038300016F020C017F021C018F022C019F023C0E4
:103840001AF024C01BF0B8EC19F01200115012103D
:10385000D8B418D0010E136E04D0D8901136123699
:10386000132A12AEFAD711500F5C12501058D8A07C
:1038700004D011500F5E1250105AD89012321132EB
:10388000132EF1D70FC00FF010C010F0120050C06F
:103890000FF0106A15C011F016C012F0CBEC1CF03E
:1038A0000FC044F010C045F006D0500EE82EFED7F1
:1038B0004406D8A0450644504510D8B41200F5D7A8
:1038C0001A6E19B002D08A9801D08A8818B002D036
:1038D0008A9A01D08A8A17B002D08A9C01D08A8C39
:1038E0001AB002D08A9E01D08A8E0FEC1DF0120011
:1038F0000F50101011101210D8B408D0000E0F1A6B
:10390000000E101A000E111A800E121A0FC00FF0BE
:1039100010C010F011C011F012C012F012000AD045
:1039200020C0F6FF21C0F7FF0800F550C5EC1AF0E3
:10393000204A212A20C0F6FF21C0F7FF0800F550D9
:103940000009D8B41200ECD71C6E000E176E000EE2
:10395000186E000E196E000E60EC1CF0010E176E52
:103960001CC018F01BC019F0010E60EC1CF0120016
:10397000000E176E000E186E000E196E000E60EC31
:103980001CF0000E176E000E186E010E196E000E60
:1039900060EC1CF012000F501102F3CF13F0F4CFC3
:1039A00014F00F501202F350142610501102F3506D
:1039B000142613C00FF014C010F0120009D020C05C
:1039C000D9FF21C0DAFFDF50C5EC1AF0204A212AC6
:1039D00020C0D9FF21C0DAFFDF50D8B41200EFD7E2
:1039E000176E000E186E07D0030E166EE80E156ED9
:1039F00047EC1CF0182A1750185CD8B01200F4D706
:103A0000116E000E106E3A0E116005D02F0E11646B
:103A100002D0010E106E10C00FF00F3012008A8617
:103A2000000E166E010E156E47EC1CF08A96000E05
:103A3000166E010E156E47EC1CF012000F6E0FC0D3
:083A400050F0120001050D1405
:020000040020DA
:08000000FFFFFFFFFFFFFFFF00
:020000040030CA
:0E000000000C1F1EFF8381FF0FC00FE00F409A
:00000001FF
